:100000000C9458070C94D0070C9479070C9479073A
:100010000C9479070C9479070C9479070C94C00719
:100020000C9479070C9479070C9479070C94790750
:100030000C9479070C9442080C9479070C94790776
:100040000C94F5070C9479070C9479070C947907B4
:100050000C9479078C0D1C0D9C0C140CB40B840BA8
:10006000440AEC09AC094C0914094408A4075407D4
:100070000C071406B405DC048C040404B4035C030C
:100080000C03E402B4026C023C020C02D4019C0199
:100090005C0194000566A00652B1E2B705589F06C0
:1000A00065ABD8BB044AA00869A5C7AA04509D0641
:1000B0006BB2CD9A034BA39963A1CAA8033FA306D1
:1000C0006CADB89F02399C0679ADC69F012AA1A1EB
:1000D0007AA7AF9502309E0679B5BC9503439F067B
:1000E00066AEC6A00237A6065C9FBA910230A20691
:1000F0006FADC49D0237A20671ABBCA20123A1E57E
:1001000079A1BB970123980680A8B7A5022B960674
:1001100089A0C193022D9D817E9DAA7B0449A3BF26
:1001200084B9B48C1071A4857BD7BF6F1F7DA38564
:1001300078D89C423A6E99207FD3A73E57718F2082
:1001400081AF9E47527991206E94963D2D668A70BC
:10015000788794430E588C7093A7A6650791AF8D4E
:1001600052F1B5320F919E8557CBB71A1C8F9885E7
:1001700057A89D0D33808E225A859809427F8D762F
:10018000586CA1073C84926E4861A6252072896E46
:100190005F5BA426066F82227275B6370E769B20AF
:1001A00085D096392E6F92227EB89242535884227F
:1001B0007386974270437F22767A904A6650722007
:1001C0008965994A2B627220927D974F06659B64E0
:1001D00072A2B67007ADB99158FEB166149FB09384
:1001E0004DE3A2431F86A18B5EC08C22346992240A
:1001F0005A918C154F508724526C7E1F3E5080249C
:100200005D658C29146A772C876293410C8C7C7411
:10021000A167BA632A7B776E9C49B0494A7A7F7698
:100220007F50AC48547A8672675FAC493C778372E2
:100230006F63B44F147674709D6DB14F118A8470E2
:100240008676C26C447989706F5EA34F587A886E47
:10025000666499434479812475619B3D31727F24A2
:10026000805F9743145F6C22AB63B25C0025BDE7EF
:100270002F7986780042BE8127779188006EBDB7BE
:100280001B75958A0082B8891F6D8F900078BB9F7F
:100290001A709387007DC0AD1F809DA00094BDADF6
:1002A0000B68998D019AB8B72D86A5690E8A8A6E5A
:1002B000797CB95011958772867ABD6631858972CD
:1002C0007167A258447E8B706578A24E447B86701D
:1002D0006E6CA14F2C717D6E7C5FA8470D666F24FC
:1002E0009B6FAA510E556F26914E9F522146642650
:1002F00098438B3D443E5E269D49713A5B3D6026A6
:10030000A15655444C425C24B151474B065D6A529C
:10031000A03DB967125D6950A136AF542C586324D3
:10032000AF28973548525F26AE2595395A4F5E263D
:10033000A3287E4E6C4A5E2EA52D755270455F2E09
:10034000A63A71636043592EB73B68614340582E0B
:10035000BB4E5E591C43594ACC656E6108626B6C9A
:10036000AD59D26A1567686EA44CE06E2B66696E53
:10037000AA4ACF704E636822B037C169605A6024C0
:10038000B4319C625958672C922B905F5A516B2C58
:100390008B285A6A61476A2C933E546D5343612CF3
:1003A0009D4756672A4D5F2CB3554D6A09456B4EE4
:1003B000B2697D7F0963674E9B3DAF5814606350FF
:1003C000A02FA54D2F596124A91A95425B4F5D2698
:1003D000AD227B376C555F26A32872416050642E96
:1003E000953064575240612EA145585C3C40652EC3
:1003F0009E4A55612645634AAB56447212495E4A8D
:10040000BF594F6C09636432BA279C851651634A01
:10041000AB3275702E476748AF4B46794042584023
:10042000C251297C5A46553ECB5B0B706D47523EFC
:10043000D25D09645B415136DF6A125A563E553629
:10044000D47D0656533E5836DA89055A3F3E5C360F
:10045000CD86185E3647633EC390185C2E4B5F3ED8
:10046000C48A25611B48603EC7822C6B09576D3ECC
:10047000B77C3D6F03607848AD78637F086079583A
:100480009069A8820B63765E8A7ADB7413227F42BE
:100490004B1A9EA54F4872425D2085938C4B6E424D
:1004A00050307992A84B6B4256327C8EA44A6C42F3
:1004B0004A346C8D71556D424D3B778644556C2C9A
:1004C00067417766314F6D2E604C7A501C67772EEE
:1004D000685A79600E7F7D2E697B7C451820915883
:1004E0006958A5984357805E764EB9784A6A836802
:1004F0007A71BD6B40728F857597D0602E70A6871C
:1005000070D0D27510517C10A1C9BD77044A9810E3
:100510008FE5CD9A014FA4087ACDC4BA013B9D085E
:1005200078B6CF91012299086B98C99A0015960860
:1005300089979F8D001097108896A2880009A800BF
:10054000687D8E8800025D00937B9FA20000000002
:10055000A1A8B19700000000A1A8B1970000000079
:10056000A1A8B197021BCEC530C78361021BCDC3C2
:1005700010818683000EAF00438E9A89045EDBE70C
:100580001DA4938F07A7DFDF0FAB959D0BBCDEE5A6
:10059000169E8A950DC8E5B91AB37E840AB7D5B1FF
:1005A00019A4929108B0CFE31589918C07B6CA6A55
:1005B0000B93A0890963674AA72295891255644A5B
:1005C000A21F827D224660389817627036416038DB
:1005D00092214D70474061388F274A6D4A3E6438FA
:1005E0008422426C434363288B21557347596B5ACD
:1005F0007E22647135687C5A693E8C641B73856207
:100600006F5DA35410778F6A6785B942076D87873E
:1006100072A6C746096D8240A291406D0D5F77407A
:10062000AC934A6B114E6F40C2A8445F16406B1CDE
:10063000CFB43D66193A5D36DBB1415B1A355A34A9
:10064000D9B9485618335134DDB1485C14374934B0
:10065000E6B353470C314932D7B5584C07224718F7
:10066000D0BF6F4F071B4218D3C17C59051B4218DE
:10067000CDC78B5502275B18BFC67F620043821827
:10068000A3D1AF8500439B187EB6BB93002D9C1071
:1006900073A2C39600279B107C95A48F00189D36EB
:1006A0007E8F9B94000DA6977BA5987F00068B00FC
:1006B0009AA4B08A0013A70055A7D173015DB6585C
:1006C0001F76BC9C0186A2585C8CCEA1067E9860E9
:1006D0008786BF862B7B95685E6DC8664C7794666F
:1006E0004E6DC3584B7AA7662C73B052447B9C6CFA
:1006F0003570C35438798F6A4B6ED55B207682682B
:10070000605DE5500971845E6272E26B28316B1E98
:10071000ACA37F62562E681EB2C27566582B6C1C45
:10072000BDC5755B4837651CCDD26C62382D5F1234
:10073000D4D67D5E3F174712E1DE8B663B1347122E
:10074000D8DC885B18235618CEE3965705468F16DB
:1007500099D7B68223406036785B2260573E59367F
:100760007B6B2B685C40563873603763634052384C
:100770007B51327E8A404E3884532D64953F4B36F0
:10078000A25E2F66983B4334AD6116447137413009
:10079000C1701B312C2D3C2CD68931260A284714D8
:1007A000D6825141252A681AC1AE63574C365C186F
:1007B000D0A8634864285018D8B464536E284F18E2
:1007C000DCBB634F5D214F18E1CF67454C215216CA
:1007D000DED0725149235016DDD58B54352A4A1686
:1007E000E9E0966014466414C7E0A772044A820EDA
:1007F0009AE7D285012F980884BFC092011D980EF8
:100800008798A8980119960E87969D94052FA9E7B9
:100810006E9EA480115DA4762D7FDB8B1079A6647B
:100820003C88CB97197B935E7DA3C9884D7A936AE8
:100830006B81D0804470866A767EE27C0F6B906616
:100840007795DC8F03000000A9B1BAA10000000079
:10085000A9B1BAA100000000A9B1BAA1000000002E
:10086000A9B1BAA100000000A9B1BAA1000000001E
:10087000A9B1BAA100000000A9B1BAA1000000000E
:10088000A9B1BAA100000000A9B1BAA100000000FE
:10089000A9B1BAA100000000A9B1BAA100000000EE
:1008A000A9B1BAA100000000A9B1BAA100000000DE
:1008B000A9B1BAA100000000A9B1BAA100000000CE
:1008C000A9B1BAA100000000A9B1BAA100000000BE
:1008D000A9B1BAA100000000A9B1BAA100000000AE
:1008E000A9B1BAA100000000A9B1BAA1000000009E
:1008F000A9B1BAA1090EA0004566919F1420BFD5E9
:100900002D83A9A10E17B3CB4A859D850305B90098
:1009100043AECC6A0A4B693A9C5A3C63114E753619
:10092000966C4B6C23576C40AE74426E4D4A643EDD
:10093000B3783C5C6E475E3CC280285D4848653CAD
:10094000DF8D296A0E4A683CD19A4B890E10AC00A3
:100950001E6DA3672B37B8992079A4874F65B19F87
:10096000336F9C7E6F84B19B2870A78E596BAF9BB1
:100970002E73B08A3955B39D37769E8C3C5FB49BFD
:100980002F7BA188455EBB9D33919A72485BBC9DCD
:100990003979858A4455B49D377FA8802E37B39B1B
:1009A0003282A6810E12BCD7358B9D920D407E22DD
:1009B000ABAB7364313A6224BF935A5E64315D22FB
:1009C000C1835870802D5522C684666C6A306320BE
:1009D000AE99646C45306720B19C6A7023406020FA
:1009E000BF9F66670953834A958883870B517F545D
:1009F0006C51C2DC126275568D44A0C51A628150DA
:100A00008C83ACB7415B78489F8A8E994D4F6A4A78
:100A1000B27E6C825D4A6240BF7F577E8348563EFD
:100A2000D57F49765C404C3EEB9342682330491AAF
:100A3000EBA14C611322471AF0B6505A0B22421A0E
:100A4000EDD0604A03000000ADB5BEA50000000077
:100A5000ADB5BEA500000000ADB5BEA5000000000C
:100A6000ADB5BEA500000000ADB5BEA500000000FC
:100A7000ADB5BEA500000000ADB5BEA500000000EC
:100A8000ADB5BEA500000000ADB5BEA500000000DC
:100A9000ADB5BEA500000000ADB5BEA500000000CC
:100AA000ADB5BEA500000000ADB5BEA500000000BC
:100AB000ADB5BEA500000000ADB5BEA500000000AC
:100AC000ADB5BEA500000000ADB5BEA5000000009C
:100AD000ADB5BEA500000000ADB5BEA5000000008C
:100AE000ADB5BEA500000000ADB5BEA5000000007C
:100AF000ADB5BEA500000000ADB5BEA5000000006C
:100B0000ADB5BEA500000000ADB5BEA5000000005B
:100B1000ADB5BEA500000000ADB5BEA5000000004B
:100B2000ADB5BEA500000000ADB5BEA5000000003B
:100B3000ADB5BEA500000000ADB5BEA5000000002B
:100B4000ADB5BEA500000000ADB5BEA5000000001B
:100B5000ADB5BEA500000000ADB5BEA5000000000B
:100B6000ADB5BEA500000000ADB5BEA500000000FB
:100B7000ADB5BEA500000000ADB5BEA500000000EB
:100B8000ADB5BEA5074B966C1A2DC6C00A78936A00
:100B90004040C0B90A76875A7254B09C1E72764C97
:100BA0008C57A99443666B4CA0667D9D4B556A1E7D
:100BB000A7795F9308538864382CC2E40A68846478
:100BC0007761BFC20C6374589471C4B91E587450D5
:100BD0009D6CA5AC32536A48B176789E414D634016
:100BE000BC6D5E9D66495E40C57E498876485C4026
:100BF000CA874480453A5740DB9B35711E2D4E1AFB
:100C0000E8AB4A6812274A1AF0C14E610723471A17
:100C1000DCB87C63091591008D8189962B499F5220
:100C200078AAC2A4456591587FA8C8AB44618E5884
:100C300083BAD1983E618D0885BED5AB315E9308ED
:100C400079B9D4B23566A1AF65CBE5A22C659C0E0F
:100C500070B4DAA91657ABAF6AC0C8A91245AB0881
:100C60006CBEC4A00F38A3086DAFBD940D31A008B1
:100C70006FA8CDAA0B2BA0086B9CC5B30B2EACDDC7
:100C8000719E989C0925A0A17A9D9F79071AA48B33
:100C900072A2A283040EA1EB80A7AB8D0B7E8C66A3
:100CA000819FC46E17818968847FA26F2069845EEA
:100CB0007E6691742D5B76308E47779B3F526F2E08
:100CC00091375AA64E53742E933C48C854576F4CD4
:100CD0009A4147C24B506844AE413DC843505F44BF
:100CE000C0453DC241505744CB443EC142485344A5
:100CF000D54E3BB239434E3CE04D40A526454D3CD8
:100D0000DE624A9D17454E3CE0714D960C43503CC7
:100D1000E185558A04415B3CD39465930D757F68EA
:100D20007A7DA829297375667675A83F4C6E73760F
:100D3000633F9F47646E773C584B86567B73743C89
:100D400056448153846D703C5736866068566D3CBE
:100D50005A3E9367465A6B3A76379874336D6B5E9A
:100D6000762C997A29696F5C6B2A9C8C1E626D5A6D
:100D70007C27859611556658822179A70A4D5C34E7
:100D8000923472AA07465744984B6DA006208B5E9A
:100D90006445A56F1C6188705852A56C3D7A8070BF
:100DA0005349926A456E78705F4487724266705EFE
:100DB0006B2E84815C666C5C732F8D976C5E675ABA
:100DC000682484A25A5166366E337A9D484F623445
:100DD00084455F9D41485A3492436792303D573273
:100DE0009E575E9419395B30A1575F8C0D2E5B10B6
:100DF000A6686A8B0620620EAB7269850E0E101112
:100E00000C06280B080C071A140A091F0C1B0A11E0
:100E10000A0B0A0506090606070708190000000064
:100E2000010101010202020203030303040404049A
:100E300005050505060606060707070700BDB13EBE
:100E400000005F3FB2F9573F0000803F643C683FBD
:100E5000EC24463FA17E303FD8F6563F95BFD633AF
:100E600000000000B9AA2A3B000000004F0DA6BFF9
:100E700073FD9CBF4A90A1BF6E967FBFAA0EA70EBE
:100E8000A30E9E0E980E940E900E8C0E5945530094
:100E90005345540052554E005249474854004F5054
:100EA000454E004F464600474F00444F574E000006
:100EB00011241FBECFE5D8E0DEBFCDBF84B780933D
:100EC000960314BE11E0A0E6B0E0E8EDF8E202C03F
:100ED00005900D92AA33B107D9F723E0AAE3B1E058
:100EE00001C01D92A639B207E1F70E9497080C9441
:100EF0006A140C9400009B01AC0160E07CE88AE07D
:100F000090E00E94D9132150310930BD29B988E9F8
:100F10008AB986E880BD08955D9BFECF8CB908959F
:100F2000CF93DF93EC018881882331F021960E94D2
:100F30008C0789918111FBCFDF91CF910895CF93D9
:100F4000DF93CDB7DEB72C970FB6F894DEBF0FBE98
:100F5000CDBF2AE0AE014F5F5F4F0E942914CE0142
:100F600001960E9490072C960FB6F894DEBF0FBE34
:100F7000CDBFDF91CF9108955D9BFECF8CB90895D1
:100F80001F920F920FB60F9211248F9380914301FD
:100F90008111369A8F910F900FBE0F901F90189568
:100FA0001F920F920FB60F9211248F939F938091EF
:100FB000430191E08927809343018091430181118E
:100FC00008C037989F918F910F900FBE0F901F9080
:100FD000189510923F0110923E0110923D0110921F
:100FE000450110924401379AEDCF1F920F920FB630
:100FF0000F9211242F938F939F93EF93FF938091E0
:1010000043018823A9F185B18093410181E0809358
:101010004001E0913D018E0F80933D01F0E0809111
:101020004101EA56FD4F808380913E0190913F013E
:10103000019690933F0180933E0180913D0180385D
:1010400021F080913D0181110AC080913D018038DD
:1010500009F080E08093440181E080934501809114
:101060003E0190913F0180349F4110F01092430166
:10107000FF91EF919F918F912F910F900FBE0F9045
:101080001F9018951F920F920FB60F9211248F93F5
:101090009F93EF93FF938CB18A3089F08D3079F074
:1010A00090913C019F30B0F4E0913C0191E09E0FA3
:1010B00090933C01F0E0EA5BFE4F80830BC0E0912F
:1010C0003C01F0E0EA5BFE4F108210923C0181E0AF
:1010D00080933B01FF91EF919F918F910F900FBEF5
:1010E0000F901F90189560E670E086E491E00E94F2
:1010F0002014892B69F068E770E086E491E00E9493
:101100002014892B69F088E890E00E9490070895E8
:1011100081E080933A0188E690E00E94900708956C
:1011200010923A018CE790E00E9490070895CF93C7
:10113000DF93CDB7DEB760970FB6F894DEBF0FBE72
:10114000CDBF60E072EC81E090E00E947B070E94DE
:10115000810F0E94C4100E94BB1086E990E00E949B
:10116000AC100E9499110E94700D0E94760D0E9491
:10117000F610789484EA90E00E94900760919603BC
:1011800070E090E080E00E949F078BE091E00E9479
:10119000900710E01AC00E94730810923B0119C01A
:1011A0000E94BB1081EB90E00E94AC108EEB90E0AF
:1011B0000E94900781E08093420180913A01882348
:1011C000E1F080914001811145C080913B01811186
:1011D000E2CF80914301882321F08091420188234E
:1011E000F9F2809143018111E8CF80914201882377
:1011F00021F380913A0181111FC08091450188231C
:1012000021F380914301882301F31092450106B137
:10121000379880914401612F0E949509812F0E9487
:10122000CE0B1F5F809143018823F9F0183200F53F
:1012300000235CF6379AC9CF0E94BB1085EC90E082
:101240000E94AC108DEC90E00E9490071092420139
:1012500010E0B3CF809141010E94BC071092400181
:1012600080913A018111B1CFC8CF183208F4ADCFC7
:101270001092430137980E94BB1083ED90E00E94CA
:10128000AC100E94810F812F0E94BA0FBE016F5FC8
:101290007F4F0E94AE0F0E94BB1060E080E00E9472
:1012A000E01081EE90E00E94AC1060E081E00E94CE
:1012B000E010CE0101960E94AC1010E086CFCF92D4
:1012C000DF92EF92FF92CF93C82F50E040E0C12C05
:1012D000D12C7601EC2FF0E0EA56FD4FA081A0580A
:1012E000BB0B9D010E94FB13C60ED71EE81EF91E04
:1012F0004F5F5F4FCF5F411581E0580759F7C70136
:10130000B6010E94B71220E030E040E85BE30E94A3
:101310006C1320E030E040E858E30E946C13CF915A
:10132000FF90EF90DF90CF9008952F923F924F92D1
:101330005F926F927F928F929F92AF92BF92CF9265
:10134000DF92EF92FF920F931F93CF93DF93CDB76E
:10135000DEB7C05AD2400FB6F894DEBF0FBECDBF85
:101360006832D0F0C056DD4F0FB6F894DEBF0FBE26
:10137000CDBFDF91CF911F910F91FF90EF90DF9044
:10138000CF90BF90AF909F908F907F906F905F9025
:101390004F903F902F900895862E082F0E945F094E
:1013A00069837A838B839C83E02FF0E0EA56FD4FBC
:1013B00040814058550B11E0100F70E060E008C00C
:1013C000332314F06F5F7F4F1F5FA901011761F096
:1013D000E12FF0E0EA56FD4F20812058330B5523D2
:1013E0007CF333238CF7EECF90E080E00E94B512BF
:1013F00020E030E040E85BE30E946C136D837E8365
:101400008F8398877E0181E2E80EF11C6E019FEDCB
:10141000C91A9EEFD90AAE014F5D5D4FD601970103
:10142000E12FF0E0EA56FD4F80818058F901819369
:101430009F011D921F5FA417B50791F730E020E0D0
:1014400048E050E0BE016F5D7E4FCE0181960E9464
:10145000040C970120583F4FFE01EF5DFD4F0DC07A
:1014600091958195910911C051954195510915C0EA
:10147000890F8193E216F306D1F0D7018D917D019A
:10148000082E000C990B99235CF3D6014D916D0148
:10149000042E000C550B55233CF3642F982F48174E
:1014A00008F4942F9695861718F7862FE1CFFE0142
:1014B000EE5DFD4F81E090E010E030E0C12CD12CDA
:1014C0007601412C512C320104C0019680389105DF
:1014D000B9F02191289FA001299F500D1124052EBC
:1014E000000C660B770B440E551E661E771EC20E4F
:1014F000D11CE11CF11C321740F7182F322FE5CF19
:1015000060E070E0CB01C114D104E104F104B1F05A
:10151000C301B2010E94B5122B013C01C701B60103
:101520000E94B5129B01AC01C301B2010E941412CA
:1015300020E030E040E05CE30E946C1369877A872A
:101540008B879C87612F70E090E080E00E94B5124D
:1015500020E030E040E05CE30E946C136D877E8702
:101560008F87988BCD5DDD4F8881C352D240CE5D91
:10157000DD4F9881C252D240890F9927991FCC5DC7
:10158000DD4F6881C452D240860F911DCB5DDD4F87
:101590006881C552D240680F792F711DE1E2F2E0F7
:1015A000EC0FFD1F359621E232E02C0F3D1F245F2A
:1015B0003F4FD12CC12C8191C80ED11CE217F307EB
:1015C000D1F7FE01E35DFD4F21E232E02C0F3D1F1C
:1015D000255E3F4FF12CE12C8191E80EF11CE217C2
:1015E000F307D1F7FE01E45CFD4F21E232E02C0F5E
:1015F0003D1F20583F4F10E000E08191080F111D62
:101600002E173F07D1F790E080E00E94B51220E04E
:1016100030E048E453E40E941412698B7A8B8B8B80
:101620009C8BB60190E080E00E94B51220E030E093
:1016300048E453E40E9414126D8B7E8B8F8B988F3D
:10164000B70190E080E00E94B51220E030E048E46D
:1016500053E40E941412698F7A8F8B8F9C8FB8018C
:1016600090E080E00E94B51220E030E048E453E4CE
:101670000E9414126D8F7E8F8F8F98A30CE51EE051
:101680000F2EFCE3EF2EFEE0FF2EF02D912C880CA8
:10169000991C880C991C880C991CF401EA5AFE4F7D
:1016A0004F01CE0101961C0151C0D1016D917D9178
:1016B0008D919D911D01A30192010E94A2112B2DDC
:1016C0003C2D4D2D5A2D0E941412D62EC72EB82E09
:1016D000A92E20E030E0A9010E940F1288230CF40B
:1016E00058C020E030E040E85FE36D2D7C2D8B2D6D
:1016F0009A2D0E94671318164CF4D12CC12C6894B3
:10170000BB24B7F80F2EFFE3AF2EF02D20E030E022
:101710004FE753E46D2D7C2D8B2D9A2D0E946C1379
:1017200020E030E040E05FE30E94A3110E948612B7
:10173000F40161934F010C5F1F4FF4E0EF0EF11CB9
:101740008CE79EE08017910709F40CCEF8014590D4
:10175000559065907490F70165917591859194917C
:10176000A30192010E94A211B62EC72ED82EA92E37
:1017700020E030E0A9010E940F12811196CFB12C18
:10178000C12C6894DD24D7F80F2EFFE3AF2EF02D87
:101790008CCFD12CC12CB12CA12CB8CF0F931F937F
:1017A000CF93082F8BEE90E00E949007602F70E09F
:1017B00090E080E00E949F078DEE90E00E949007ED
:1017C00010E0000F111F000F111F000F111F0A5A08
:1017D0001E4FC0E003C0CF5FC83071F0F8016191C7
:1017E0008F0170E090E080E00E949F07C73098F77B
:1017F0008CE20E948C07EFCF80EF90E00E94900770
:10180000CF911F910F9108952F923F924F925F9227
:101810006F927F928F929F92AF92BF92CF92DF9200
:10182000EF92FF920F931F93CF93DF93CDB7DEB765
:1018300067970FB6F894DEBF0FBECDBF9A87898732
:101840007C876B873E872D8781E090E01C0102C07A
:10185000220C331C4A95E2F7B1016150710916164A
:1018600017060CF047C089859A8501969A8389836B
:10187000AB85BC85119630E020E0E1E0F0E06C0142
:101880005D0109851A85EB84FC840AC03196BFEF9F
:10189000CB1ADB0A4FEFA41AB40A6E177F0754F174
:1018A000C10195958795AC01420F531F64177507C9
:1018B000C4F3AC014150510924233523280F391FAB
:1018C000E217F3071CF7D6014C91C801820F931F52
:1018D000DC015C91D6015C93DC014C93D5014C9109
:1018E000C701820F931FDC015C91D5015C93DC0181
:1018F0004C93CCCF52E0251631040CF4D6C081E0D5
:1019000090E09E838D839FE79B8B3A822982AAC0B9
:1019100049815A81441655060CF07DC00F851889FF
:10192000040D151D49895A89440D551DA985BA858F
:10193000A40DB51DEB85FC85E40DF51D52018C2C25
:10194000CC0C9908282F880F330BBF8BAE8B5D8B87
:101950004C8B58864F82D8016C91062E000C770B69
:10196000AC89BD89CC900C2C000CDD085080AE8970
:10197000BF894C90869EA001879E500D969E500D6B
:1019800011242C9D10012D9D300C3C9D300C1124F8
:1019900042195309440F452F441F550B842D841BB6
:1019A000D8018C938C9C70018D9CF00C9C9CF00C4D
:1019B0001124629FC001639F900D729F900D1124AE
:1019C0008E0D9F1D880F892F881F990B952D981BB1
:1019D000AC89BD899C93440DAE89BF894C93850D1C
:1019E00080834B815C81A40EB51E060D171D8C896A
:1019F0009D89860D971D9D8B8C8BA60DB71DBF8B6A
:101A0000AE8BE60DF71DA981BA81AA16BB060CF4B0
:101A1000A2CF4F805884BFEF4B1A5B0A2D813E81C5
:101A200042165306B1F080E0CB884114510451F0C6
:101A300080E0C12C141415042CF485E50F2EF5E577
:101A4000CF2EF02D2D853E85232B09F461CF819576
:101A50005FCF4B815C815E834D8389819A8148177A
:101A600059071CF5AD81BE81AA0FBB1FBC83AB8398
:101A70002D813E811216130664F7512C412C80E013
:101A80000F2EFFE7CF2EF02D6B807C80A985BA85C5
:101A90002D813E81A20FB31FB88BAF87AB85BC856C
:101AA0002A0F3B1F3A8B298BCDCF90E080E06796C1
:101AB0000FB6F894DEBF0FBECDBFDF91CF911F915F
:101AC0000F91FF90EF90DF90CF90BF90AF909F90DD
:101AD0008F907F906F905F904F903F902F900895E0
:101AE00080E687B986E886B9339A08958EB588600E
:101AF0008EBD8EB582608EBD8BEA90E09BBD8ABDA7
:101B000089B7806189BF08952F923F924F925F926B
:101B10006F927F928F929F92AF92BF92CF92DF92FD
:101B2000EF92FF920F931F93CF93DF93CDB7DEB762
:101B30006C970FB6F894DEBF0FBECDBFA82E70E035
:101B4000FB01E450F24F3490FB01EE0FFF1FEC5A03
:101B5000FF4F45905490282F30E03A8F298F432D26
:101B600050E05E834D83241B350BC90199238CF112
:101B70009A8B898B089724F488E090E09A8B898B64
:101B8000B988332009F46CC09FEF930D292F30E002
:101B90002F5F3F4F220F331F220F331F10E000E053
:101BA0003A8329834FEF5FEF6FEF7FE3C8010E9415
:101BB00044110C5F1F4F49815A810417150791F793
:101BC000F12CE12C10E000E0CB2C0B2C000CDD08FC
:101BD00039C088279927821B930BCACF44275527E2
:101BE000481B590B10C049815A81480F591F5A830D
:101BF00049832F5F3196283061F08D919491891B34
:101C0000990BAC015AF3CA01243068F3880F991F6D
:101C1000EACF002309F429C1C70104970E946E117D
:101C2000AB01BC0129813A81420F531F611D711D17
:101C3000C7010E9444110F5F1F4F34E0E30EF11CF7
:101C4000031570F4C016D106B4F3A6E5B1E0F701B0
:101C5000EE0FFF1FE40DF51D20E01A821982CDCF93
:101C600041E04A1508F01DC18EE591E09A83898311
:101C7000AA94AA948A2D90E09C012E5F3F4F3C8746
:101C80002B878FEF830D90E08F5F9E4FAC01440F49
:101C9000551F440F551F588B4F8766246394712C32
:101CA0008B2DBB0C990B9A87898701969E878D8710
:101CB0009D819B8B2E812C8B3FEF3D8B4FEF4E8B6D
:101CC0005FEF5F8B8FE3888F3C829AC04427552754
:101CD000481B590B10C04B8D5C8D480F591F5C8FF2
:101CE0004B8F2F5F3196283061F08D919491891B35
:101CF000990BAC015AF3CA01243068F3880F991F7D
:101D0000EACF332009F4BCC0850101501109000F4E
:101D1000111F000F111FC8019C5F0E946E11862EBB
:101D2000972E282E792EAA0CBB1CAA0CBB1CC50111
:101D30000E946E116B017C01C8010E946E11082D7A
:101D4000192D222D372D601771078207930710F484
:101D50008B019C01B901A801C416D506E606F70659
:101D600010F4B701A6018B8D9C8D480F591F611D82
:101D7000711DC5019C5F0E94441133949B813916EB
:101D800088F4A32CB12CF501EE0FFF1FEE0FFF1FFF
:101D9000EE0FFF1FE40DF51DA981BA8120E01C8E16
:101DA0001B8EA3CF6F8078845C815523D1F080E0B7
:101DB00094E010E098878F830C818F8198850E9432
:101DC0006E11AB01BC018F81988594500E94441123
:101DD0001F5F2F8138852C5F3F4F38872F83101767
:101DE00060F33FEF631A730A49815A81485F5F4F7E
:101DF0005A8349838B859C856816790609F451C0FE
:101E000029853A85312C261537051CF4362C39895D
:101E1000331A8D859E85860D971D4D815E814817ED
:101E200059070CF48B898B835C81552321F180E069
:101E300094E00F85188998878F834FEF5FEF6FEFDE
:101E40007FE38F8198850E9444112F8138852C5F14
:101E50003F4F38872F830217130779F79B81391675
:101E600008F0A5CF78866F828CCF89819A81AC01EA
:101E700070E060E0DDCE2B81321608F0B2CFF2CFF9
:101E800090E080E00E946E116B017C018D889E883D
:101E90002F88788CB12CA12C682D792D822D972D2F
:101EA0004ECF8D819E810197880F991F880F991FB2
:101EB0000E946E11298D3A8D4D815E81240F351F50
:101EC000032E000C440B550B0E94D913CA01B90113
:101ED0006C960FB6F894DEBF0FBECDBFDF91CF91E9
:101EE0001F910F91FF90EF90DF90CF90BF90AF9038
:101EF0009F908F907F906F905F904F903F902F902A
:101F00000895CF93DF93809197038A3A09F587E983
:101F100093E08F359840F8F4E8E9F3E0EF01C75912
:101F2000D34081918A3A21F4E03688E0F807B1F78E
:101F300084EF90E00E949007BE0190E080E00E9454
:101F40009F078BE091E00E949007DF91CF91089569
:101F5000D0E0C0E0EDCFD0E0C0E0EACFE82FCB0189
:101F6000F0E0EE0FFF1FE458F14F659174910E946D
:101F7000191408952F923F924F925F926F927F9221
:101F80008F929F92AF92BF92CF92DF92EF92FF9289
:101F90000F931F93CF93DF93CDB7DEB761970FB643
:101FA000F894DEBF0FBECDBF282E8EEF90E00E94CA
:101FB00090078EE091E00E949007622D70E090E023
:101FC00080E00E949F078BE091E00E9490070CEF59
:101FD0001DE0C12CD12C7601198A44244A94542C3A
:101FE00032010BC00F5F1F4FFFEFCF1ADF0AEF0A5E
:101FF000FF0A2EE00C31120779F1F80134906C2DB4
:10200000822D0E94840D4B015C018BE291E00E94C5
:102010009007C701B6010E949F078BE191E00E94E3
:102020009007632D70E090E080E00E949F0781E2BE
:1020300091E00E949007C501B4010E949F078BE0C8
:1020400091E00E94900784149504A604B70450F60A
:10205000C98A24013501C6CF8989E82FF0E0E45E02
:10206000F14F1491BE016F5F7F4F812F0E94AE0F21
:1020700085E291E00E949007E9896E2F70E090E080
:1020800080E00E949F078DE291E00E949007CE01C0
:1020900001960E94900782E391E00E949007C3019D
:1020A000B2010E949F078BE091E00E949007812F70
:1020B00061960FB6F894DEBF0FBECDBFDF91CF9112
:1020C0001F910F91FF90EF90DF90CF90BF90AF9056
:1020D0009F908F907F906F905F904F903F902F9048
:1020E000089595B39F7095BB80FDAC9A81FDAD9A24
:1020F00082FDAE9A83FDAF9A979A84E08A95F1F7B4
:10210000979884E191E00197F1F700000895CF934B
:10211000C82FAA98AB9882958F700E9471108C2F4F
:102120008F700E94711089E995E10197F1F700C065
:10213000CF910895CF93C82FAA9AAB9882958F70AC
:102140000E9471108C2F8F700E94711088EB8A95FD
:10215000F1F70000CF910895CF93DF93EC018881D0
:10216000882331F021960E949A1089918111FBCF2A
:10217000DF91CF91089581E00E94871089E995E170
:102180000197F1F700C008958F9A84B38C6084BBE7
:1021900084B3806F84BB8FEF97ED0197F1F700C098
:1021A000000082E00E94871088E20E9487108CE085
:1021B0000E94871086E00E9487100E94BB1008953D
:1021C000882329F080EC860F0E948710089580E80C
:1021D000860FFACF2BB32170982F990F922B9BBBB0
:1021E00080FD02C0C0980895C09A089587B38E619B
:1021F00087BB88B3886188BB1ABAB8980895CF9313
:10220000DF93D92FC62F9EEF9ABBB89A0E94EA108F
:10221000C19A84E08A95F1F7C1988D2F0E94EA1047
:10222000C29A84E08A95F1F7C2988C2F0E94EA1036
:10223000C49887E08A95F1F700C0C49ADF91CF91E6
:102240000895CF93C92F9EEF9ABBB89A0E94EA10C7
:10225000C19A84E08A95F1F7C1988C2F0E94EA1008
:10226000C29A84E08A95F1F7C2981ABAB898C398CE
:1022700087E08A95F1F700C086B399B3C39A9E7F31
:102280008170892BCF910895CF92DF92EF92FF92C8
:10229000CF93DF93EC016A017B01642F0E94FF1052
:1022A00099278F2D7E2D6D2DCE0101960E94FF1056
:1022B000B70188279927CE0102960E94FF106F2D43
:1022C000772788279927CE0103960E94FF10DF9178
:1022D000CF91FF90EF90DF90CF900895FF920F93F2
:1022E0001F93CF93DF938C010E942111D82FC80137
:1022F00001960E942111F82EC80102960E94211118
:10230000C82FC80103960E9421114C2F50E070E0A5
:1023100060E0BA01552744275F294D2B8A019B01B4
:10232000382BC901B801DF91CF911F910F91FF9018
:1023300008958A98929A85B7826085BF8BB780642A
:102340008BBF08955058BB27AA270E94BA110C943E
:102350002D130E941F1338F00E94261320F039F429
:102360009F3F19F426F40C941C130EF4E095E7FB40
:102370000C941613E92F0E943E1358F3BA17620704
:1023800073078407950720F079F4A6F50C94601381
:102390000EF4E0950B2EBA2FA02D0B01B901900180
:1023A0000C01CA01A0011124FF27591B99F0593FC4
:1023B00050F4503E68F11A16F040A22F232F342F0C
:1023C0004427585FF3CF469537952795A795F0405A
:1023D0005395C9F77EF41F16BA0B620B730B840B6F
:1023E000BAF09150A1F0FF0FBB1F661F771F881F27
:1023F000C2F70EC0BA0F621F731F841F48F487957F
:1024000077956795B795F7959E3F08F0B0CF939570
:10241000880F08F09927EE0F9795879508950E94E9
:10242000F21208F481E008950E9428120C942D13F2
:102430000E94261358F00E941F1340F029F45F3FBA
:1024400029F00C94161351110C9461130C941C1365
:102450000E943E1368F39923B1F3552391F3951B22
:10246000550BBB27AA2762177307840738F09F5FB5
:102470005F4F220F331F441FAA1FA9F335D00E2E22
:102480003AF0E0E832D091505040E695001CCAF78F
:102490002BD0FE2F29D0660F771F881FBB1F261752
:1024A00037074807AB07B0E809F0BB0B802DBF0129
:1024B000FF2793585F4F3AF09E3F510578F00C94F8
:1024C00016130C9461135F3FE4F3983ED4F38695A2
:1024D00077956795B795F7959F5FC9F7880F911D19
:1024E0009695879597F90895E1E0660F771F881F05
:1024F000BB1F621773078407BA0720F0621B730BB8
:10250000840BBA0BEE1F88F7E09508950E944613DE
:1025100088F09F5798F0B92F9927B751B0F0E1F0A4
:10252000660F771F881F991F1AF0BA95C9F714C054
:10253000B13091F00E946013B1E008950C946013E3
:10254000672F782F8827B85F39F0B93FCCF386958D
:1025500077956795B395D9F73EF4909580957095EA
:1025600061957F4F8F4F9F4F0895E89409C097FB67
:102570003EF490958095709561957F4F8F4F9F4F5A
:102580009923A9F0F92F96E9BB279395F69587959E
:1025900077956795B795F111F8CFFAF4BB0F11F461
:1025A00060FF1BC06F5F7F4F8F4F9F4F16C0882308
:1025B00011F096E911C0772321F09EE8872F762F3E
:1025C00005C0662371F096E8862F70E060E02AF07F
:1025D0009A95660F771F881FDAF7880F969587956B
:1025E00097F90895990F0008550FAA0BE0E8FEEF40
:1025F00016161706E807F907C0F012161306E407C7
:10260000F50798F0621B730B840B950B39F40A26BF
:1026100061F0232B242B252B21F408950A2609F49D
:10262000A140A6958FEF811D811D089597F99F67A1
:1026300080E870E060E008959FEF80EC089500244A
:102640000A941616170618060906089500240A9417
:1026500012161306140605060895092E0394000C9D
:1026600011F4882352F0BB0F40F4BF2B11F460FF2C
:1026700004C06F5F7F4F8F4F9F4F089557FD905855
:10268000440F551F59F05F3F71F04795880F97FB36
:10269000991F61F09F3F79F08795089512161306F0
:1026A0001406551FF2CF4695F1DF08C0161617061F
:1026B0001806991FF1CF8695710561050894089554
:1026C000E894BB2766277727CB0197F908950E94E6
:1026D000F21208F48FEF08950E947F130C942D13CB
:1026E0000E941F1338F00E94261320F0952311F04A
:1026F0000C9416130C941C1311240C9461130E9457
:102700003E1370F3959FC1F3950F50E0551F629FE4
:10271000F001729FBB27F00DB11D639FAA27F00D3A
:10272000B11DAA1F649F6627B00DA11D661F829F61
:102730002227B00DA11D621F739FB00DA11D621F46
:10274000839FA00D611D221F749F3327A00D611D63
:10275000231F849F600D211D822F762F6A2F112445
:102760009F5750409AF0F1F088234AF0EE0FFF1F78
:10277000BB1F661F771F881F91505040A9F79E3FCF
:10278000510580F00C9416130C9461135F3FE4F331
:10279000983ED4F3869577956795B795F795E79525
:1027A0009F5FC1F7FE2B880F911D9695879597F92E
:1027B0000895A1E21A2EAA1BBB1BFD010DC0AA1F82
:1027C000BB1FEE1FFF1FA217B307E407F50720F09A
:1027D000A21BB30BE40BF50B661F771F881F991F15
:1027E0001A9469F760957095809590959B01AC015E
:1027F000BD01CF0108950E940314332312F48A1BF4
:102800009B0B0C941414A29FB001B39FC001A39F13
:10281000700D811D1124911DB29F700D811D112419
:10282000911D08950E940314B7FF0895821B930B16
:102830000895FB01DC0105900D920020E1F7089559
:10284000FB01DC018D91019080190110D9F3990BE6
:102850000895BB272A3051F4992342F4BDE29095A4
:102860008095709561957F4F8F4F9F4F0C943914D1
:10287000BB27FA01A62F6217710581059105330B5D
:1028800030FB66F0AA27660F771F881F991FAA1FC3
:10289000A21710F0A21B63953850A9F7A05DAA33C8
:1028A00008F0A95DA19336F7B111B1931082CA0166
:1028B0000C945A14DC01FC01672F71917723E1F726
:1028C000329704C07C916D9370836291AE17BF07FD
:0828D000C8F30895F894FFCF4E
:1028D800636F6C6C656374004D4F44453A20434FF9
:1028E8004C4C4543540D0A00647370004D4F4445E9
:1028F8003A204453500D0A00554E4B4E4F574E2028
:10290800434D440D0A0053797374656D2052656117
:1029180064792100524553455420464C41473A209A
:10292800005265636F7264696E672E2E2E005354D1
:102938004152540A0053746F707065640053544FC9
:10294800500A0050726F63657373696E672E2E2E7E
:102958000044657465637465643A0046003A5B0038
:102968005D0D0A00465245455F52414D3D000D0A36
:102978002D2D2D20445457202D2D2D0D0A006C6926
:1029880076655F6672616D65733D00206C656E3DAE
:102998000020643D00424553543A207400202D3EE7
:0A29A80020002073636F72653D008C
:00000001FF
