:100000000C944F090C94C7090C9470090C94700956
:100010000C9470090C9470090C9470090C94B70935
:100020000C9470090C9470090C9470090C9470096C
:100030000C9470090C94320A0C9470090C94700999
:100040000C94E6090C9470090C9470090C947009D6
:100050000C947009000306090C0F1215181B1E21C1
:1000600024272A2D303336393B3E414346494B4EF7
:1000700050525557595B5E6062646667696B6C6E7F
:100080007071727475767778797A7B7B7C7D7D7EF2
:100090007E7E7F7F7F7F7F7E7E7E7D7D7C7B7B7A89
:1000A0007978777675747271706E6C6B6967666457
:1000B00062605E5B59575552504E4B494643413E34
:1000C0003B393633302D2A2724211E1B1815120FD9
:1000D0000C0906032C118C10540FB40E740D5C0C1B
:1000E000440BA40A8C094C083407F405B4047403C7
:1000F0003402F4006825803625CCBFAE661F7E062C
:100100004BD6C5AC6A24808825E0B4AC69228090C7
:1001100025D6BDB0662D803A3EE0C1B05A6D802034
:1001200025E0C3B0547D800E18EAB8B153707E1C30
:100130003EE0C7AD557A7E0E4BEFC3B156797E0CCB
:1001400025F4C9B06437801432DBBBB16722807EEE
:1001500018D6C7B06523800658E0C5AF6623809ED9
:1001600025C1BFAC6A217E584BE5C1AD5B5B800EFB
:1001700025E5B0B055777E083EDBC3B156797E08E1
:100180004BE5BFAF55737E0458EAC3AF54787E3257
:100190004BE0C9AB8C8D7E0858E0C3AEC2977E069B
:1001A0004BEFCCB0BE9B7E0858EABFABBC9D8072C3
:1001B0003EDBC7B2BC9B802632DBC9B1BC8F7E045C
:1001C00058E0BBAFBE727E104BEAC1ADBE63801E6D
:1001D0004BE5C3AFBD7C80964BD6C1ADBB637E04FF
:1001E00065D1C1AEBD7E8210FFEABDB3C29E7E3234
:1001F00025DBC5ABBE987E0E0BEACCABBD9C7E2A40
:1002000032D6C5AFBC9E806A25D6C9ACBC99809059
:1002100025D6C9AFBF62802E32C1BBAFBD807E2262
:100220004BD1CCB1BD6080604BD1BFAEBC80800EE5
:100230003EE0BDAB7152808A4BDBB8B17157801282
:100240003EDBB6B371507E2432D1C3AD6F5C800605
:100250004BD6BDB06F517E163ED1C9AB6972802AB4
:1002600058BCC7AE6A70801C25DBC5AF6974806856
:100270004BD1C5B06A72802425D1C7AF6C7780306E
:1002800025E0C5B26C5D80623EDBC1AE7356806214
:100290004BD6C5AF6F557E0E3EEFBBAE735480128A
:1002A00032E5C9B36B51803C3EE0B6AE6E6D7E2048
:1002B00032E5D0B06978800E18EAC1B0696F807CF1
:1002C0003EE0B4B36C727E0C0BD6C5B16973806826
:1002D00018DBC1AB97617E1432DBC7B2C36B7E52B1
:1002E00032DBC7B1C16280483EDBC1B3BA657E066E
:1002F0004BE0C3AEB9617E1618E5BFACBD3D7E06CE
:100300004BDBC9AAC30080443EDBB8B2C400803EC8
:1003100025D6C1AFB9007E5C32D6B4ADB800803A04
:1003200018D6BFB0BB1C7E0C32E5C3ADC3667E0CD5
:100330003ECCCCA9C161803832D1C7ADBB617E4E05
:1003400025E0C3AABA5D7E0458E0C7ABBB607E2A35
:1003500032E5C5ADC4007EB03ED1C3B0C300800E4F
:1003600025E0C1ABBD00804432A3C3ABB7007E38EB
:100370003EEAC3B2BE777E0465EAC1AEBC757E0AB2
:1003800025EFBDB0B9797E4C4BD6C7ADB9777E1A93
:100390003EDBBFAEB9727E624BCCC1B1514080949E
:1003A00025E5BBB14147805625DBC3B0443F8004FF
:1003B0004BD1AEAC444C7E24FFDBD0AF3F3F80C07E
:1003C0004BD1BDB1A0707EB232E0C9ADBE737E0428
:1003D0004BD6D0B0BA757E083EE0BFAFB9697E207B
:1003E0004BDBC9B1B7797E9A32E0C3AF6D517E0E57
:1003F00025E0D0B144407E243EE5CCAE41477E109E
:100400003EEFC3AA3F3E7E1058DBCCB04247802A65
:1004100032C1CCAE86307E2A4BDBC5AFC01980BA64
:1004200018C6C5AFBF14806C32CCBDAFB519807291
:1004300025D6BFABB41980124BD6BFAEB9198052C6
:100440000BE0C1ADC1147E4232E0C9ABC1197E3AA6
:1004500032D6BFB0B8197E5E32E0BDADB7147E189B
:100460004BE0C3B0B9197E204BDBD2B0BF1480344F
:1004700032CCC5AFC0197E1C32D6C7AFB7197E24A7
:100480003EDBC3ACB419803218CCC1AFB5147E24A6
:100490004BDBC5AEC11880044BE0B6ADC0197C2A59
:1004A0003ED6D0A9BB13801E25D1C5B1B61E80860D
:1004B0004BE5C7B1C517809A18D1C3AFC32E7EA430
:1004C0003ED1C1AABF17800A25EFB2ACB91E7E0685
:1004D00058DBC7AEBA257E064BE5B8AC7F3E800838
:1004E0003EEFBFB37642800858DBC5B07B4080D476
:1004F00018D6BDAC79427E2832CCC9AA78437EA2F8
:100500004BE5BFAAB3297E1E3EDBCCACC4217C4E9A
:100510004BD6C5ACC1237E5A4BD1C3ABBA2E80CAD1
:100520000BD6C3AFB917801C18E0C7B18F427E4A03
:1005300032DBC3AD77437E1218EFC7B177437E48F5
:100540003EEAC1AD783E7E283ED6C3AF7A477E48AC
:100550003EDBC5B0A1697E164BDBC7ADC27B8032E6
:100560004BC6C1AEBF8B80D632DBBBACBD7B7E52EF
:100570003EDBC7ABBC8180604BC6C5B3BE617E208D
:100580003EE0D0AFC10C809025C6C1AEC0197E4CF4
:1005900058D6BBA9BB0E802425E0D4B1B917805032
:1005A00032E0B4AFBC2E7E063ED6C3A8C3877E2AF7
:1005B00018E0C3AEBF807E2418DBD2ABBD81802E95
:1005C00032D6C5B2BD8A7E403ED6BBA8BE6B7E4247
:1005D0004BE5C3ACC0197E0658D6BFACC11380A68C
:1005E0000BDBC3ABBC137E0465E5C9B1BA187E163C
:1005F00032EAC3AF94357E3825E0C5B097298088AC
:100600004BD1C5AE9831805A4BE0B8AC96308038AB
:1006100032E0BDAF99317E204BEACCB1825C7E14D2
:100620003EEFBDB083657E5C4BCCC5AC80677E0C75
:1006300032F4C3AF866980364BE5BBB1826380522A
:1006400032DBBFAE903D7E0465E5CCAD95387C2CA9
:100650003EE0C5AD972C807A25E5B8AE992F808E07
:1006600032D6C1AE982F802832CCC9B08B4C8010C6
:1006700032EABDAD8166800658D6C5AA846C7E4C30
:100680004BE5C5B384637E2418EACEAF826B802627
:1006900032D6C7B4A4537EC23EE0C1ACC53D7E4E47
:1006A0003EE0BDADC243803632D1B8AEBA417E82A3
:1006B0004BDBC3ACBB417E3A32E0BFB1BF2B80A65F
:1006C00032D6BDADC200804A3ED6BFAEC400803235
:1006D0004BDBC5ADB8007E163EEAC1B1B800800C58
:1006E00032EABFAEBB14809E32DBC3B4C441800E7D
:1006F00025E5C3B0C24580C418D6BBAEBD3C7E0A5A
:100700004BDBC9AFBA4E80323ECCC3B0BD33801E86
:1007100032E0B2AEC4007E2425DBC5ABC3007E1040
:1007200032F4C1AEBC007E440BE0C5B1B80080928B
:100730004BCCBFAE78747E123EE0C7AF798780BAEB
:100740003EE0BFAC7C727E2C3ECCC1AD7A827E0492
:1007500058E0BFB07D78800A0BE0C1AD636E7E08C3
:1007600058D1B4B25B527E2C3EDBC5AD5D61805E7C
:1007700018CCBBB0595980484BC6BDAD6061801ED6
:1007800025D1CEAF756780803EDBC9AE7A757E0815
:100790003ED6BFAD7981805E3EE0C5AD7B7E7E40BA
:1007A0004BDBC9B07D7480E418D1BFA99E837C6EF9
:1007B0004BD1C5AEBF78800A4BE5C3B0BB857E1078
:1007C00032E5C1AFB97E7E4418D1C3ADB87E809CFE
:1007D00032D6B4ADBA727E984BD1C5ABB954803E17
:1007E0004BD6BDB2BB607E084BE0CCB1B74B805856
:1007F00032D6C3AFB761803E32E0C7AFB8587E1A79
:100800003ED1C1B3BE87808C25CCB4B0BC7B7E0A00
:100810003EE5BBA9B979801E4BD6B2B1B8827E4CF9
:100820003ED1BFADB9757E3E58D6C5ABBB62800A1E
:100830003EEABDACB94B7E204BE5CEB2B9607E3806
:100840003EE0BDAEB64E80363EE5C1B0B4817E6AB4
:100850004BDBC3ADB46F801618D1C3AEB175802623
:1008600018D6C5ACB37D7E480BE0C1AEB2607E4405
:100870004BD6BBAD4E697E3A18E0C9AB3D6C7E46A7
:100880004BE0C1AB3F5F7E0C4BE0B2B03C6B8024D1
:100890003ED6C3B2416280283EC6BDAD947A804E3A
:1008A00032E0C1B3B46C80084BCCC1AAB37380589A
:1008B00018C6C3B3B2707E4058DBC5AFB46780368C
:1008C00018CCC3AD6764803625CCC5B1416680C005
:1008D00032D6C5AE3D647EA43ED6BFAF3F68801021
:1008E0004BE5B8AF3C65804C25BCC5AD7F587E1448
:1008F0004BE0CEAEBE5080463ED6BDAFBC4B7E2256
:100900003ED6CEADB9537E7832E5C1B1B950803A0A
:1009100032DBB8AEBB6C7E0465E0C5B1BB9380141E
:100920003EE5B8ACBBA4807025D6BDADBA98825068
:100930000BD1BFB3BAA27E1A25D6CCAFBB857E0C35
:1009400018F4C9AFBF507E2232E5D2ADBD4C80C293
:100950003EDBBDACB94C801C0BD6CCB2B954802A5E
:100960004BE0C3B2B952806C3EE0BFB0BBA4806E16
:100970003ECCC1B1BC977E243EE5C5ABBBA17C0695
:1009800058E5CCADBA9780403ECCBFAFA955800E9C
:1009900018E5BFB0BA57800C18EABFB0BA587E222B
:1009A0003EEAC3AFB9587E703EE5B8B2B957802869
:1009B00032DBC1AE6749805A25E0C3B150427E0A9E
:1009C0004BEFBBB0494780CA0BDBB6AF4B4680202C
:1009D00032E0BFB046417EA83ED6C7B09153804EAC
:1009E00058E5BBB2BA587E4832DBBDB2BA52802E4F
:1009F00032D6C5AFBA597E0A3EE5C3ADB8577E18A8
:100A000032E0CCAEBE30801018D6C1ABC30A7E92A5
:100A100025D6C5ADC50580264BD6BBB0B80A80AE7D
:100A200032CCBDB0B805804632D1C3B0BC057E24FF
:100A30000BCCC1ADC300809832CCC1AEC3007E4C9C
:100A40004BD1C1AEB8007EB03EE5C5AAB7007E2648
:100A50003ED1D2ABB905803432E0C3B0C505805475
:100A600025D6ACAEC30A7E444BD6CEB0BC0580447E
:100A70003ED6C1B0B80A803E32D6B4B0BA058010B6
:100A800032EAC1B1C3007E9432E0C7AFC2007E1A21
:100A900032C6CEB2BC007E3E3EDBBFAAB7007E3A75
:100AA00025E0CCB18467806C3ED1BFB1B5727E16B3
:100AB0003ED6C5ACAE6780143EE0B8ACAF67805E92
:100AC0003EE5C1B1AA727E3A3EE0C5ABB26F804E40
:100AD0004BDBBFB1BC5D80064BEFBDB2BB6A80385B
:100AE0003EE0B6ADB9667ED63EC6C5ABB9637E9074
:100AF0004BD6BFACBA6380624BCCC1AFB06C7E2624
:100B000058D6C5AFB15E802025CCC9B1AE7780562E
:100B10004BE5C1B3AA657E204BD6BDB0B0758056FB
:100B20003EE0BFB3BC6A7E2225EACCADBD6C8068D6
:100B300058D6BFB0B95980483ED6B8ACB9758036E2
:100B400032C6C1B39F36805E4BD6BFB3A946828CF6
:100B500025CCBBADA73E80583ED6CCAEA1407E187A
:100B60003ED1C9B1A03E7E244BDBC9B16E647E98F4
:100B70003EDBC1AC5E6E7E7432D6C9AC5E707E3632
:100B80004BD6C9B05A6E7E223ECCCEAC5A6C80CACF
:100B900032DBC5AE8B497E3A4BDBC7AFAA3A7E76D5
:100BA0003ECCC7B1A9407E2632DBC3B09F3D803426
:100BB00032D1BFB2A23E7E2C3EDBC3ADAC57800427
:100BC00058D6C3B0B54E80064BDBC1ACB460806272
:100BD00025D1BFACB04C80643EDBBFB5B162800EA6
:100BE0003EE0C5B1B35C7C384BE0C3A9B86F7E3042
:100BF0003EE5CCACB97C80103EDBBDADB573807EEC
:100C000018DBC5AFB67E804632EAB6AEB5677E5613
:100C100018D6C5AFB7607E0E3EE5C3ACB44B8016A8
:100C20004BE5BBB3B265800A32EFBDB0AE4E802E4D
:100C300025DBC9B0B35A7E104BE5C9B0B87C7E4401
:100C400058D6CCAFB96F80464BD6BDB1B6867E2E96
:100C500032E5C7ADB4727E0C3EEFCEAD862A7E5E25
:100C60003ED6C3AF873C804832D6BFAE8A277E309F
:100C70003EDBCCAD8F3A7E143EE0C5B38D2A7EECD0
:100C800058E0C7AA69387EA83EC6D0AF5B31808ED7
:100C90003EC1C1B05E2A7E4058CCBDAF632B7E8A78
:100CA00025D1C7AB6029802E3ED1C5B27D3180BA37
:100CB0003EC1CEB18729807225D6B4AD8A3980E68F
:100CC00032C1C5AD8D2C7E804BE5C1B18F358064BE
:100CD0004BDBC3B29C70802C32D6C7B1AA89801E70
:100CE00032E0C3AEAB937E4832E0C3AFA78C7E3018
:100CF00025D6C7ADA58F7E9E58E0BDAEB18580726A
:100D00003EB2C5AFC1637E0858D1C3AEC1587E564E
:100D10004BEABFB2BC6B805C3EE0BFB2B95280828E
:100D200032DBC7AFB6667E2E18E0C9AEAE90800C3F
:100D300018EAC3AEAB8F80364BDBB8B1A78E7E28E6
:100D40004BEAC7AEA794805E32EAC1B0AA977E2074
:100D50004BC6C9B0C1527C0858D1C7AEC16B7E2208
:100D60003EE0CCAFBD4F7ED032E5C1AABA6C80B8B0
:100D700025B7C3AC746080043ECCC3B076677E6692
:100D80003ECCCCAE715D7E0C25EABFAD726680387C
:100D900018EAC1B0715D806632C6C5B172707E045A
:100DA00058D1C5B0716A7E3E32DBBFB1716F80B27F
:100DB0004BCCBDB46F6E7E8C32D1C7AD716B801CD5
:100DC00058D6D0B2796E7E2425DBD4AF715E7E0416
:100DD00065E0BFA7735E7E124BD6BFAA7062800E1D
:100DE00032E0BFB174637E0A32EFC3AF726C7E5AD9
:100DF00032C6CCAB706E800A32D6C5AD706C7E2622
:100E00003EE0C5AE736E7E3C3EE0C3AE71727E5472
:100E100032C6C3AD9A3380363ED1C3AEC1008082A4
:100E200025D6BBB1C000808025D6CCB1B5007E20D0
:100E300025D1C9AEB400805032D6C5B0B81E8004EA
:100E400058D1BBB2BE4680FA25D6BBB1BD5A800C84
:100E500018EABFB1B7417E084BE0C7AEB560800667
:100E600058D6BDAFB833803E3EE0BDB0C0007E4E28
:100E70003ED6C9B0C102801A25C1CCADB800805E93
:100E800025D6C5AFB5007EDA18E5B6AAB60580123C
:100E90004BE0C1B1BD5C801032E5C5AFBE418012F0
:100EA0000BEAB6AEB85A80144BDBC3ADB5477E3AF9
:100EB00032D6C1AC92447E124BDBBDACC40A7E9AE2
:100EC0003EE0BDABC405806C3ED6C1AEB90A801A07
:100ED0003ED6BFADB805801832E5C1B1BE0A7E3836
:100EE00058DBC1ADC60A803A4BD1C1B1C6057E5CA4
:100EF0004BE0CEB0BD0A7E7032CCC3AFBA05807C69
:100F00004BDBBBAEBD0A80A04BDBBDB4C405806E1D
:100F100025E5C3B2C40A7E4C25E5C9ADBB057E3CC0
:100F200032E0C3ADB9057E2025CCD0AEBA0A7E5CD6
:100F30003EE5C3B1C605802432DBCCB2C60A80349C
:100F400032DBC5AFBF05803625DBC7B2BA0A8044A5
:100F500018E0CEB067437E4C25D6C5B2604D7E0604
:100F600058EFC5AE604D7E244BEACCAE624780A2FE
:100F700025E0C3B17E7380B232E0BDB07F8F7C08C4
:100F800058E0C7AA847C7E2625EAC9B183807E2EDC
:100F900025EAC7AE8489801632DBCEB0666280381F
:100FA0004BD6BBB3654F80203EDBC9AE5E537E5847
:100FB0003ED6BFAC624780143EEAC5B15F55801E85
:100FC0003ED6BFAE7C61804E32EFB6AF83837E4AA1
:100FD00032D6C5AD8282805C18EAB6AD8387800EBA
:100FE00025DBB4AB827D7E0C32EFC5ADA4457E4ED1
:100FF00032E0CEADC30A801A3ECCC7B1C205803400
:1010000032DBC7B1B80A7E0658DBC5B1B60A80AA82
:1010100025E5BDB1BC007E703EE0C5AEC6007E0ECB
:101020004BEAC3ADC500803425D1C1AEBB00800CF6
:101030003EEAC3B1B9007E263EDBC7ABBD05807C6E
:101040003EDBC5B1C10680103EDBB8ACC30780747F
:101050003ECCBBB1BA0B7E4C4BDBC5AFB705803E77
:101060003EDBC9AFB9077E1432E0C7ADC500808250
:1010700025DBBFAAC500807A32CCC1AFBE00804656
:101080003EC6C5B2B900803425D6C5B48D71803650
:101090003ED6C5B0BE667E464BDBC3AABD657E1894
:1010A0004BE5CEAFB761804225C6C1B0B86F7EBCFC
:1010B0004BE0B8AFB9667E544BE0C3B0B95D800A6F
:1010C00032EFC1B1BA5780143EE5C1ADB4608022A1
:1010D0003ED6C5B0B4537E2C4BDBC9B1B6597E08A1
:1010E0004BE0C1B1BF6A7E8858E0B6ACBD657E7684
:1010F0003EDBC5ABB8677E0458CCCCAEB86A8090F6
:1011000032E5BDAEB86A80BC3EE5B2AFBB57804A9F
:101110003EDBB8B0B965801A3ED6C9B1B74F7E5034
:101120003EE0C5AFB267804E3EE5C3B36F6B7E2A2B
:1011300018DBC9AB7A7080443EDBBFB17269804670
:101140003ED6B6AD78697E243ED6D2AE736F80109F
:1011500032EFC5B1615580284BDBC5B15C5C7E8048
:101160004BE0BFAC5E54805A32E0C7B35C607E1483
:101170003EE5C3AE5D547E0658E0C3AE6B687E2A82
:101180004BE0C7B3756F802E3EE0C5B07865802A0E
:101190003ED6C3AC7470800C25E5BFAC736380365B
:1011A00025BCBFB19473806A3ED1CCB0A95C825893
:1011B00018D6BBAFA65C80AC3ED1B8B4A9697E0E90
:1011C0003EEFCEB0A94F7E9A4BE5C7B0B0537E48F4
:1011D0004BD6CCB1C231804232DBC1B0C23880586C
:1011E00018D1C1AFBA307E1E58D6D0AEB9337EA664
:1011F00025E5C7ACB547807C3EC6BBAAAA537E0E88
:101200003EE5BFADA96A7E1C3ED6C7AFA8597E1C7D
:101210003EE5C7AEA9627E283ED6CEAFAA53801463
:1012200032E0C1AFC2377E5458CCC5AFC23080382F
:1012300025C1C1B2BD337E144BE0C7ACB8307E0EC1
:101240003EEFBFAD2314271428232314232823287B
:1012500028282828000001010202030304040505D0
:1012600006060707991294128D128A1286128012AE
:101270007A127412686F757365005374617274002A
:10128000536576656E00536574004F6E00466C6F53
:10129000776572004665617200446F776E001124B5
:1012A0001FBECFE5D8E0DEBFCDBF84B78093480432
:1012B00014BE11E0A0E6B0E0E2E9FEE202C0059053
:1012C0000D92A43CB107D9F724E0A4ECB1E001C031
:1012D0001D92A834B207E1F70E94930A0C944717B5
:1012E0000C9400009B01AC0160E07CE88AE090E097
:1012F0000E94AB162150310930BD29B988E98AB95D
:1013000086E880BD08955D9BFECF8CB90895CF938C
:10131000DF93EC018881882331F021960E948309B4
:1013200089918111FBCFDF91CF910895CF93DF9306
:10133000CDB7DEB72C970FB6F894DEBF0FBECDBF8A
:101340002AE0AE014F5F5F4F0E940617CE01019663
:101350000E9487092C960FB6F894DEBF0FBECDBF52
:10136000DF91CF9108955D9BFECF8CB908951F92B8
:101370000F920FB60F9211248F938091CD0181119E
:10138000369A8F910F900FBE0F901F9018951F9255
:101390000F920FB60F9211248F939F938091CD01DE
:1013A00091E089278093CD018091CD01811108C002
:1013B00037989F918F910F900FBE0F901F901895A7
:1013C0001092C8011092C701379AF3CF1F920F9263
:1013D0000FB60F9211242F933F934F935F936F9308
:1013E0007F938F939F93AF93BF93EF93FF938091DE
:1013F000CD018823D1F08091C7019091C80180343C
:101400009F4168F585B18093CA0181E08093C9014D
:101410008091C4018823D1F08091C7019091C801C7
:1014200001969093C8018093C701FF91EF91BF91FE
:10143000AF919F918F917F916F915F914F913F916C
:101440002F910F900FBE0F901F9018956091CA01B9
:101450008091C7019091C8010E942516DDCF10929E
:10146000CD01E3CF1F920F920FB60F9211248F93ED
:101470009F93EF93FF938CB18A3089F08D3079F090
:101480009091C6019F30B0F4E091C60191E09E0FAB
:101490009093C601F0E0E053FE4F80830BC0E091D3
:1014A000C601F0E0E053FE4F10821092C60181E0C9
:1014B0008093C501FF91EF919F918F910F900FBE87
:1014C0000F901F90189560E670E080ED91E00E940B
:1014D000FD16892B69F065E870E080ED91E00E94CF
:1014E000FD16892B99F08EE990E00E9487090895F6
:1014F00081E08093C40187E690E00E9487090E9402
:10150000E11589E790E00E94D21508951092C40178
:1015100089E890E00E9487090E94E11585E990E042
:101520000E94D2150895CF93DF93CDB7DEB76097B1
:101530000FB6F894DEBF0FBECDBF60E074E883E065
:1015400090E00E9472090E94EA150E94E1158CEA5F
:1015500090E00E94D2150E946A160E94AC0F0E9471
:10156000B20F0E941C1678948AEB90E00E948709C3
:101570006091480470E090E080E00E9496098EE758
:1015800091E00E948709CC24C394A12CB12C25C0E2
:101590000E94630A1092C50124C00E94E11587ECE5
:1015A00090E00E94D21584ED90E00E948709C092DD
:1015B000CC0127C00E94E1158BED90E00E94D2156E
:1015C00083EE90E00E9487091092CC01C092CB017B
:1015D00018C08091C401882339F18091C50181111F
:1015E000D7CF8091CD01882321F08091CC01882331
:1015F000A1F28091CD01811104C08091CC018111B3
:10160000D9CF8091CD01882321F38091C401882313
:1016100059F08091C901882301F31092C90180918A
:10162000CA010E94B309D5CF8091CB018823A9F2CA
:101630001092CB010E94E11589EE90E00E94D21534
:1016400087EF90E00E9487098091C7019091C801BF
:10165000D12C883C910570F1EA2CFB2CD12C10E0A8
:1016600000E0C701800F911F0E944716F801E85B58
:10167000FC4F80830F5F1F4F083C110591F78701D6
:1016800008531F4F6D2D80E00E94900C8D2D0E94FD
:10169000F20DD3948091C7019091C80120E7E21A1E
:1016A0002EEFF20A8E159F0528F088E2D81611F069
:1016B0007801D5CF1092CD01379883EE90E00E944B
:1016C00087090E94E11583E091E00E94D2158D2DDB
:1016D0000E94CC0FBE016F5F7F4F0E94C00F0E941F
:1016E000E11560E080E00E94061681E191E00E9431
:1016F000D21560E08C2D0E940616CE0101960E9444
:10170000D2151092CF0169CFCF92DF92EF92FF9264
:10171000482F58EC580FC12CD12C7601E42FF0E063
:10172000E85BFC4FA081A058BB0B9D010E94CD1629
:10173000C60ED71EE81EF91E4F5F4513EFCF552783
:101740004F2D3E2D2D2D211580E4380741055105E3
:10175000A0F4AFEFB0E00E94EB16DC01CB01072E46
:101760007EE0B695A795979587957A95D1F7702DD8
:10177000FF90EF90DF90CF9008958FEFF9CFE82F93
:10178000F0E0E85BFC4F40814058550B91E0980F2A
:10179000885370E060E0B0E0A0E00AC06F5F7F4F68
:1017A000422753275523A4F09F5FA901981791F072
:1017B000E92FF0E0E85BFC4F20812058330BF90162
:1017C0007D96FB9758F7FA017D96FB9738F7ECCF9B
:1017D0001196EACF6A30710550F02FEF2A9FC001B1
:1017E0002B9F900D11240E948316862F089580E070
:1017F00008954F925F926F927F928F929F92AF92D5
:10180000BF92CF92EF92FF920F931F93CF93DF93EC
:1018100000D000D0CDB7DEB7FC013196812C912CE1
:1018200054018394412C512C3201E12CF12C87017D
:10183000C1908C2D90E0B0E0A0E089839A83AB83C7
:10184000BC839C01AD01C501B4010E947316E60E74
:10185000F71E081F191F420E531E641E751E9FEFB0
:10186000891A990AA90AB90AA0E88A169104A1045A
:10187000B104F1F680E0411451046104710441F0B7
:10188000C801B701A30192010E94AB16822F880FF5
:101890000F900F900F900F90DF91CF911F910F91AC
:1018A000FF90EF90CF90BF90AF909F908F907F90E0
:1018B0006F905F904F900895FC01319682E070E048
:1018C00060E0A0E003C08F5F8E3789F091912181A5
:1018D000290F3327331F408150E0440F551F240F39
:1018E000351F6217730778F7B901A82FECCF8FEF78
:1018F000A89FA00111249A01A5E0B2E00E94D5168C
:10190000481B590B56954795840F951F0024880F47
:10191000991F001C880F991F001C892F902D089576
:101920004F925F926F927F92AF92BF92CF92DF926F
:10193000EF92FF920F931F93CF93DF93CDB7DEB754
:10194000C058D2400FB6F894DEBF0FBECDBFA82E50
:101950006832B0F0C058DD4F0FB6F894DEBF0FBE4E
:10196000CDBFDF91CF911F910F91FF90EF90DF904E
:10197000CF90BF90AF907F906F905F904F90089501
:10198000862F90E06C01CC0CDD1CCC0CDD1CCC0C4B
:10199000DD1C8C0D9D1D9C0120523E4F69018A2D3E
:1019A0000E94840BB82ED6018C938A2D0E94BF0B07
:1019B000F60181838E010F5F1F4F7E01F1E0EF0E74
:1019C000FF1EAE0147535E4FD7019801EA2DF0E0AC
:1019D000E85BFC4F80818058F90181939F011D9243
:1019E000A394A417B50791F730E020E048E050E059
:1019F000BE016F5F7E4FCE0101960E943D0E9801A1
:101A000020583F4FFE01EF5FFD4F19C051954195A2
:101A100051091DC0B195A195B10921C0840F951F31
:101A20009695879540E0009731F040E04F5F96959E
:101A300087950097D9F7419302171307E9F0D8016A
:101A40004D918D01042E000C550B5523FCF2D7014E
:101A50008D917D01A82F880FBB0BBB23DCF2BD014C
:101A6000CA01A417B50708F4CD01969587954617C6
:101A70005707A0F6AB01D2CFCE018F5F9D4F0E94DA
:101A8000F90BF6018283CE018F5F9D4F0E945C0CA3
:101A9000D60113968C93CD5FDD4F8881C350D24021
:101AA000CE5FDD4F9881C250D240E82FE90FFF276B
:101AB000FF1FCC5FDD4F8881C450D2408E0F9F2F17
:101AC000911DCB5FDD4F6881C550D240680F792FE3
:101AD000711DE1E0F2E0EC0FFD1F359621E032E0F0
:101AE0002C0F3D1F245F3F4F10E000E08191080F55
:101AF000111DE217F307D1F7FE01E35FFD4F21E06F
:101B000032E02C0F3D1F255E3F4F50E040E08191B9
:101B1000480F511DE217F307D1F7FE01E45EFD4FB8
:101B200081E092E08C0F9D1F80589F4F412C512CDB
:101B300032012191420E511C611C711CE817F907FA
:101B4000C1F7EFEFE69F9001E79F300D1124ADEC58
:101B5000BCEC0E94D516929582958F7089279F7054
:101B60008927D60114968C93E09F9001E19F300D58
:101B7000112436952795ABE7B4E10E94D5169695CA
:101B80008795D60115968C93E49F9001E59F300DC3
:101B90001124A9E8B8E80E94D5160024880F991FDF
:101BA000001C880F991F001C892F902DF601868339
:101BB000AFEFB0E0A30192010E94EB1624E833E0FE
:101BC00040E050E00E94AB16D60117962C9380910E
:101BD000CE01BB2DB81B8B2F8058F6018087B092A9
:101BE000CE01B8CE0F931F93CF93082F8BE191E0D6
:101BF0000E948709602F70E090E080E00E949609C3
:101C00008DE191E00E948709802F90E08C01000F08
:101C1000111F000F111F000F111F080F191F005275
:101C20001E4FC0E003C0CF5FC93071F0F801619171
:101C30008F0170E090E080E00E949609C83098F72C
:101C40008CE20E948309EFCF80E291E00E94870935
:101C5000CF911F910F910895882334F0E82FF0E081
:101C6000EC5AFF4F84910895282F2058330BF90127
:101C7000EC5AFF4F8491819508952F923F924F9295
:101C80005F926F927F928F929F92AF92BF92CF920C
:101C9000DF92EF92FF920F931F93CF93DF93CDB715
:101CA000DEB768970FB6F894DEBF0FBECDBFE1E098
:101CB000F0E01F0102C0220C331C4A95E2F7A1019B
:101CC000415051095A834983141615060CF043C03C
:101CD0006C015FEFC51AD50A7B01AFEFEA1AFA0A69
:101CE00001E010E0F0E0E0E089809A800BC00F5F37
:101CF0001F4FBFEFCB1ADB0A4FEFE41AF40A80162E
:101D000091064CF1A10155954795DA01AE0FBF1F21
:101D10008A169B06C4F3DA011197EA23FB23E40F2A
:101D2000F51F0E171F071CF7D6014C915C01AE0E74
:101D3000BF1ED5015C91D6015C93D5014C93D701B0
:101D40004C915B01AE0EBF1ED5015C91D7015C9337
:101D5000D5014C93CCCF52E0251631040CF4E1C0F0
:101D60003C872B87788B6F879E878D8781E090E0FB
:101D70009F838E8339862886ADC08D890E942C0E64
:101D80008195A884B98429813A812A153B050CF0F4
:101D90007AC009891A89020F131FAB88BC88A20E6A
:101DA000B31EBE8AAD8AAD85BE85A20FB31FF901F1
:101DB000AF84B888EA0DFB1D5901082C000C990866
:101DC000282F880F330B28843984B88FAF8BD80124
:101DD0006C91062E000C770BAD89BE89EC900E2C11
:101DE000000CFF08D080AF89B88DCC90869EA001F2
:101DF000879E500D969E500D11242E9D20012F9DE3
:101E0000500C3E9D500C112444195509440F452F88
:101E1000441F550B8C2D841BD8018C938E9CC001C4
:101E20008F9C900D9E9C900D1124629F7001639F6A
:101E3000F00C729FF00C11248E0D9F1D880F892FBE
:101E4000881F990B9D2D981BAD89BE899C934C0DC5
:101E5000AF89B88D4C938D0D80834B815C81A40E2E
:101E6000B51E060D171D8D899E89860D971D9E8BAB
:101E70008D8BA60DB71DB88FAF8BE60DF71DA21485
:101E8000B3040CF4A4CFA981BA811196BA83A983B3
:101E9000AD80BA84AB0CAD82AE80BF80AA15BB0505
:101EA00081F09D8190549D8B8D810E942C0E882EF7
:101EB000AB84BC84AB2809F460CF8D890E942C0EC2
:101EC00060CFAB80BC80BF82AE8228853985A216E8
:101ED000B3063CF5AE80BF80AA0CBB1CBC82AB82B3
:101EE00080E890E06E817F810E9497166A87AE80BD
:101EF000BF801A141B042CF720E42D83512C412C95
:101F00006B807C804D855E854A0D5B1D5A8B498BAD
:101F10008F859889A80EB91EBC8AAB8A5A824982DD
:101F2000C0CF90E080E068960FB6F894DEBF0FBE99
:101F3000CDBFDF91CF911F910F91FF90EF90DF9078
:101F4000CF90BF90AF909F908F907F906F905F9059
:101F50004F903F902F90089580E687B986E886B924
:101F6000339A08958EB588608EBD8EB582608EBD21
:101F70008BEA90E09BBD8ABD89B7806189BF0895D7
:101F8000E82FCB01F0E0EE0FFF1FEC59FD4E6591FD
:101F900074910E94F61608952F923F924F925F928D
:101FA0006F927F928F929F92AF92BF92CF92DF9269
:101FB000EF92FF920F931F93CF93DF93CDB7DEB7CE
:101FC000C05BD1400FB6F894DEBF0FBECDBFC9567F
:101FD000DE4F8883C759D14084E291E00E9487098F
:101FE00084E391E00E948709C956DE4F2881C759D2
:101FF000D140622F70E090E080E00E9496098EE769
:1020000091E00E948709AE014F5F5F4FC855DE4FD8
:1020100059834883C85AD140CE018196C455DE4FBA
:1020200099838883CC5AD1409C01DC01FA014FEF9F
:102030005FEFBA018FEF41935193619371938D9349
:10204000E217F307C1F7C956DE4F9881C759D1404F
:10205000992309F4FEC08091E001843608F028C578
:1020600089EE91E010E01F5FC956DE4FA881C75985
:10207000D140A11709F41CC50996FC0139972081AC
:10208000243688F3C956DE4F0881C759D140015024
:10209000802F4AF1282F082E000C330BF901EE0F88
:1020A000FF1FEE0FFF1FEE0FFF1FE20FF31FE052A7
:1020B000FE4F90819436B0F42FEF280F022E000CC3
:1020C000330BF901EE0FFF1FEE0FFF1FEE0FFF1F87
:1020D000E20FF31FE052FE4F81502AF039979185AD
:1020E0009436D0F3082FFF24F394F00EF11A112345
:1020F00059F1FF2049F120EE31E08FEF8F0D90E094
:10210000AC01440F551F440F551F440F551F840F3A
:10211000951F87519E4F412F50E0BA01660F771FE0
:10212000660F771F660F771F460F571FD901A40F41
:10213000B51FF90168E07D9171936150E1F7275F68
:102140003F4F2817390791F7F092CF0181E491E0D2
:102150000E948709612F70E090E080E00E9496095C
:102160008DE491E00E948709602F70E090E080E0AC
:102170000E94960984E591E00E9487096F2D70E026
:1021800090E080E00E9496098EE791E00E94870926
:10219000E4E4F2E1CB56DE4FF983E883C559D14040
:1021A00024ED30E0CF55DE4F39832883C15AD1402A
:1021B00044E552E1CD55DE4F59834883C35AD1409F
:1021C000C856DE4F188219821A821B82C859D14024
:1021D000C555DE4F1882CB5AD1408FEF9FEFDC01FF
:1021E000C356DE4F88839983AA83BB83CD59D140E0
:1021F000C956DE4FB881C759D140AB2FB0E0CB559F
:10220000DE4FB983A883C55AD140E9E4F0E0EC0F72
:10221000FD1F3496C255DE4FF983E883CE5AD14074
:10222000FFEFC457DE4FF883CC58D1402FEFC35790
:10223000DE4F2883CD58D1403FEFC257DE4F388361
:10224000CE58D1404FE3C055DE4F4883C05BD140EC
:10225000A9C2C956DE4FF880C759D1401F2D0FEFD4
:1022600073CF88249924881A990ADAC28827992773
:10227000861B970B34C066247724681A790A0CC031
:10228000480F591F2F5F3196283061F08D9194913E
:10229000891B990B3C017AF3C301243088F3880F22
:1022A000991FEECFE1102DC0660F771F660F771FC5
:1022B000E9EEF0E0EC0FFD1FE60FF71F70E060E0C5
:1022C0004083518362837383E3946E2D0E2C000C44
:1022D000770B60177107B4F5CB0177233CF2C81672
:1022E000D90694F3A0EEB1E0FB01EE0FFF1FEE0F55
:1022F000FF1FEE0FFF1FEA0DFB1D50E040E020E046
:10230000C5CFDB01AA0FBB1FAA0FBB1F89EE90E050
:102310008C0F9D1FA80FB91FFB013197EE0FFF1FF8
:10232000EE0FFF1FE80FF91F40805180628073801D
:10233000440E551E611C711C4D925D926D927C92F3
:102340001397C2CFC956DE4F9881C759D1409230FA
:1023500008F42DC181E0382E38180F2EF9EEAF2E7B
:10236000F1E0BF2EF02D9819CD56DE4F9883C3595A
:10237000D140CC24CA94C20CD12CCC0CDD1CCC0C8A
:10238000DD1CC255DE4FA881B981CE5AD140CA0E9C
:10239000DB1E880C8394CC56DE4F8882C459D14012
:1023A000C456DE4F2882CC59D140C055DE4F9880AC
:1023B000C05BD14090C0812CA2C000271127081B10
:1023C000190B0CC0480F591F2F5F3196283061F050
:1023D0008D919491891B990B8C017AF3C80124305B
:1023E00088F3880F991FEECF18140CF084C3F701FF
:1023F00034974080518062807380FFEF4F165F06F4
:102400006F06FFE37F0608F065C3DB0114960D91AC
:102410001D912D913C9117978D919D910D90BC919F
:10242000A02D081719072A073B0710F4D901C80186
:10243000481659066A067B0610F4D301C201840FC0
:10244000951FA11DB11DF70181939193A193B193A4
:102450007F018394C757DE4F28813981C958D14005
:10246000285F3F4FC757DE4F39832883C958D14073
:102470006C5F7F4FC557DE4F3881CB58D140381540
:1024800059F0C757DE4FE881F981C958D140D501CD
:1024900050E040E020E09CCF222089F0DE01A751EF
:1024A000BF4FFE01E75BFF4F4191519161917191E7
:1024B0004D935D936D937D93EC15FD05A9F73394D2
:1024C00049E0A40EB11CCD56DE4F5881C359D1400E
:1024D000351609F46CC0FE01E75BFF4F222059F06E
:1024E0002FEF3FEF4FEF5FE32193319341935193F0
:1024F000EC15FD05A9F7832C33200CF45CCFCC56EA
:10250000DE4F3881C459D140330DC557DE4F388373
:10251000CB58D140832F330F990BC157DE4F4881E1
:102520005981CF58D1404817590754F4C456DE4F4B
:102530005881CC59D140C557DE4F5883CB58D14034
:10254000C557DE4F8881CB58D14088160CF0A4CFF8
:10255000082D082C000C110BB801660F771F660FB1
:10256000771F0F2EF9E4EF2EF12CF02DEC0EFD1E4F
:10257000E60EF71E000F111F000F111F000F111F95
:10258000CF56DE4FA881B981C159D140A00FB11FEC
:10259000C757DE4FB983A883C958D1406450710929
:1025A000E9EEF0E0EC0FFD1F6E0F7F1F6ACFC15701
:1025B000DE4FE881F981CF58D1403197EE0FFF1FF0
:1025C000EE0FFF1F89EE90E08C0F9D1FE80FF91FA3
:1025D000CB55DE4F28813981C55AD140C157DE4FD6
:1025E000A881B981CF58D1402A0F3B1F032E000C80
:1025F000440B550B60817181828193810E94AB16DF
:10260000E22EF32E042F152F422F5F2D602F712FF6
:10261000C356DE4F88819981AA81BB81CD59D140B3
:10262000481759076A077B07F0F4C655DE4F9881B3
:10263000CA5AD140C555DE4F9883CB5AD140C356B4
:10264000DE4FE882CD59D140C256DE4FF882CE59D6
:10265000D140C156DE4F0883CF59D140C056DE4F1E
:102660001883C05AD140CD55DE4FE881F981C35A55
:10267000D140849190E0FC01EE0FFF1FEE0FFF1F91
:1026800021E030E02C0F3D1FE20FF31F808091808E
:10269000A280B380481559056A057B05C0F4FC018A
:1026A000EE0FFF1FEE0FFF1FE20FF31FE082F1821C
:1026B0000283138341E250E04C0F5D1F840F951F8E
:1026C000C655DE4FE881CA5AD140DC01EC9385EB58
:1026D00091E00E948709C856DE4F688179818A811E
:1026E0009B81C859D1400E9496098EE591E00E94D5
:1026F0008709C955DE4FF881C75AD1406F2F70E066
:1027000090E080E00E94960984E691E00E948709AB
:102710006E2D7F2D802F912F0E9496098EE791E0DC
:102720000E948709CB56DE4F28813981C559D14097
:102730002F5F3F4FCB56DE4F39832883C559D14099
:10274000CF55DE4F48815981C15AD1404E5F5F4F0E
:10275000CF55DE4F59834883C15AD140C856DE4F0A
:1027600088819981AA81BB81C859D1400196A11D58
:10277000B11DC856DE4F88839983AA83BB83C8598D
:10278000D140CD55DE4FA881B981C35AD1401196B1
:10279000CD55DE4FB983A883C35AD1402455324169
:1027A00009F482C0C856DE4F5881C859D140C65579
:1027B000DE4F5883CA5AD140CB56DE4FE881F981AB
:1027C000C559D140F491C955DE4FF883C75AD1405D
:1027D000CB56DE4FE881F981C559D1402490CF55C1
:1027E000DE4FE881F981C15AD14085919491CF564D
:1027F000DE4F99838883C159D140222D30E0C157E3
:10280000DE4F39832883CF58D140CB55DE4F8881A6
:102810009981C55AD140821B930B4C010AF421CDFA
:1028200038E0831691041CF46894882483F8082DFA
:10283000222009F487CDFE01E751FF4FDE01A75B9F
:10284000BF4F8FEF820D90E0880F991F880F991F5F
:102850009F012C5F3F4F820F931F2FEF3FEF4FEFF2
:102860005FE321933193419351932D933D934D9386
:102870005D93E817F90789F7C157DE4F4881598101
:10288000CF58D140141615060CF05CCDE12C60E059
:1028900070E0C02E000FDD08CF56DE4FA880B98053
:1028A000C159D1408A0118CD88E691E00E9487097C
:1028B000FE01B99688E0DF011D928A95E9F78FEF56
:1028C00089AB8AAB8BAB8CAB8DAB8EAB8FAB88AF50
:1028D00020E0DD24DA94EE24EA94FF24FA940FEF4A
:1028E0001FEF31E02BC08F5F3496883081F09D91CF
:1028F0009111F9CF80809180A280B38084169506D3
:10290000A606B70680F7C82EB501A401ECCFBFEF2D
:10291000CB1619F18C2D90E0E9E2F0E0EC0FFD1FF1
:10292000E80FF91F30832F5FE1E3F0E0EC0FFD1FAC
:102930008E0F9F1FDC012C93283079F0DE019996D1
:10294000C855DE4FE881F981C85AD14080E0CD2CCE
:102950004E2D5F2D602F712FCACF81E891E00E942C
:1029600087098E010F5C1F4FF12CBE01675B7F4F03
:102970008F2D0E94C00F8BE991E00E948709F8011A
:1029800061918F0170E090E080E00E9496098DE9EE
:1029900091E00E948709CE01875B9F4F0E948709C3
:1029A00080EA91E00E948709C455DE4FA881B98171
:1029B000CC5AD1406D91C455DE4FB983A883CC5A0F
:1029C000D14070E090E080E00E94960987EA91E0B3
:1029D0000E948709C855DE4FE881F981C85AD14065
:1029E0006191719181919191C855DE4FF983E8838E
:1029F000C85AD1400E9496098EE791E00E9487094B
:102A0000F394F8E0FF12B1CFC555DE4F2881CB5AC1
:102A1000D140E22FF0E0EC5AFD4E1491BE01675C0C
:102A20007F4F812F0E94C00F8FEA91E00E9487099B
:102A3000C555DE4F3881CB5AD140632F70E090E00E
:102A400080E00E94960987EB91E00E948709CE0101
:102A5000C9960E9487098CEB91E00E948709C356B2
:102A6000DE4F688179818A819B81CD59D1400E9456
:102A700096098EE791E00E948709812FC055DE4FAD
:102A80000FB6F894DEBF0FBECDBFDF91CF911F917F
:102A90000F91FF90EF90DF90CF90BF90AF909F90FD
:102AA0008F907F906F905F904F903F902F90089500
:102AB000C956DE4F0881C759D1400150802FC956F1
:102AC000DE4FF880C759D14010E000230CF43CCB16
:102AD00010E0E0CAC457DE4F4880CC58D140C357FD
:102AE000DE4F5880CD58D140C257DE4F6880CE5857
:102AF000D140792C8ACCFB0184819581A681B78154
:102B00000097A105F0E4BF0708F499CCC457DE4F45
:102B10008881CC58D140C357DE4F9881CD58D140E1
:102B2000C257DE4FA881CE58D140B92D88CC95B37D
:102B30009F7095BB80FDAC9A81FDAD9A82FDAE9AE7
:102B400083FDAF9A979A84E08A95F1F7979884E18C
:102B500091E00197F1F700000895CF93C82FAA984C
:102B6000AB9882958F700E9497158C2F8F700E9462
:102B7000971589E995E10197F1F700C0CF91089584
:102B8000CF93C82FAA9AAB9882958F700E94971501
:102B90008C2F8F700E94971588EB8A95F1F70000B3
:102BA000CF910895CF93DF93EC018881882331F092
:102BB00021960E94C01589918111FBCFDF91CF91A1
:102BC000089581E00E94AD1589E995E10197F1F73B
:102BD00000C008958F9A84B38C6084BB84B3806FE7
:102BE00084BB8FEF97ED0197F1F700C0000082E002
:102BF0000E94AD1588E20E94AD158CE00E94AD15D3
:102C000086E00E94AD150E94E1150895882329F001
:102C100080EC860F0E94AD15089580E8860FFACFEC
:102C20002BB32170982F990F922B9BBB80FD02C074
:102C3000C0980895C09A089587B38E6187BB88B302
:102C4000886188BB1ABAB8980895CF93DF93D92FBB
:102C5000C62F9EEF9ABBB89A0E941016C19A84E0C4
:102C60008A95F1F7C1988D2F0E941016C29A84E0C0
:102C70008A95F1F7C2988C2F0E941016C49887E0AD
:102C80008A95F1F700C0C49ADF91CF910895CF9350
:102C9000C92F9EEF9ABBB89A0E941016C19A84E081
:102CA0008A95F1F7C1988C2F0E941016C29A84E081
:102CB0008A95F1F7C2981ABAB898C39887E08A95AE
:102CC000F1F700C086B399B3C39A9E7F8170892BB8
:102CD000CF9108958A98929A85B7826085BF8BB705
:102CE00080648BBF0895DB018F939F930E94EB1646
:102CF000BF91AF91A29F800D911DA39F900DB29F98
:102D0000900D11240895AA1BBB1B51E107C0AA1FF7
:102D1000BB1FA617B70710F0A61BB70B881F991F7C
:102D20005A95A9F780959095BC01CD01089597FB20
:102D3000072E16F4009407D077FD09D00E94831661
:102D400007FC05D03EF4909581959F4F08957095AE
:102D500061957F4F0895A1E21A2EAA1BBB1BFD01AE
:102D60000DC0AA1FBB1FEE1FFF1FA217B307E4076A
:102D7000F50720F0A21BB30BE40BF50B661F771FC2
:102D8000881F991F1A9469F76095709580959095A2
:102D90009B01AC01BD01CF0108950E94D5163323DC
:102DA00012F48A1B9B0B0C94E616A29FB001B39FF2
:102DB000C001A39F700D811D1124911DB29F700D44
:102DC000811D1124911D08950E94D516B7FF089505
:102DD000821B930B08950E94D516A59F900DB49F5A
:102DE000900DA49F800D911D11240895FB01DC011D
:102DF00005900D920020E1F70895FB01DC018D9113
:102E0000019080190110D9F3990B0895BB272A303E
:102E100051F4992342F4BDE29095809570956195A7
:102E20007F4F8F4F9F4F0C941617BB27FA01A62F89
:102E30006217710581059105330B30FB66F0AA27F7
:102E4000660F771F881F991FAA1FA21710F0A21BD9
:102E500063953850A9F7A05DAA3308F0A95DA19346
:102E600036F7B111B1931082CA010C943717DC0107
:102E7000FC01672F71917723E1F7329704C07C91B1
:102E80006D9370836291AE17BF07C8F30895F894ED
:022E9000FFCF72
:102E920073747265616D004D4F44453A205354522C
:102EA20045414D494E470D0A0053747265616D20CC
:102EB2006D6F646500647370004D4F44453A204461
:102EC20053500D0A00445350206D6F646500554EF7
:102ED2004B4E4F574E20434D440D0A0053797374A5
:102EE200656D205265616479210052455345542035
:102EF200464C41473A20005265636F7264696E67BF
:102F02002E2E2E0053544152540A0053746F707087
:102F120065640053544F500A0045787472616374BB
:102F2200696E672E2E2E0045585452414354494E25
:102F3200470A0050726F63657373696E672E2E2E97
:102F42000044657465637465643A0046003A5B0048
:102F52005D0D0A000D0A2D2D2D20445457202D2DD4
:102F62002D0D0A006C6976655F6672616D65733D51
:102F7200005641443A2066697273743D00206C61C8
:102F820073743D00207472696D6D65643D00206C40
:102F9200656E3D0020643D000D0A2D2D2D20574FFA
:102FA20052442052414E4B494E47202D2D2D0D0AA1
:102FB200000D0A3D3D3D20574F52442052414E4B99
:102FC200494E4753203D3D3D0D0A0023002020007D
:102FD200202074706C3D002020646973743D0042AF
:102FE2004553543A207400202D3E20002073636F15
:042FF20072653D00C7
:00000001FF
