:100000000C94030A0C947B0A0C94240A0C94240A82
:100010000C94240A0C94240A0C94240A0C946B0A61
:100020000C94240A0C94240A0C94240A0C94240A98
:100030000C94240A0C94E60A0C94240A0C94240AC6
:100040000C949A0A0C94240A0C94240A0C94240A02
:100050000C94240A000306090C0F1215181B1E210C
:1000600024272A2D303336393B3E414346494B4EF7
:1000700050525557595B5E6062646667696B6C6E7F
:100080007071727475767778797A7B7B7C7D7D7EF2
:100090007E7E7F7F7F7F7F7E7E7E7D7D7C7B7B7A89
:1000A0007978777675747271706E6C6B6967666457
:1000B00062605E5B59575552504E4B494643413E34
:1000C0003B393633302D2A2724211E1B1815120FD9
:1000D0000C090603AC120C12D410940F540E140D1C
:1000E0000C0CCC0A8C0974083407F405B4047403AE
:1000F0003402F400BD537CCA271E086ABC4F7E80C0
:100100002D00076ABC4F7E6A05140A6BBE617A3205
:100110000F0F0D6CBE3E821E210C0073BF527C7C03
:1001200000040069BF4F80AC33140D65BA49806A82
:10013000371C006B852A7E2E272108687D1A7EAE2B
:1001400027210B67B54C7E5A01130D69BC4A86F412
:100150002F00016FBD4C7C382E020166BD428240EB
:100160001D02016BBC4980C42F05056ABF547C0485
:1001700001170266BF5380A219150A70B84E7E7629
:100180003304085F7C1982E42003077394257E60A2
:10019000140209697818829C0700056C65117E9E1F
:1001A00013210A65650C7EA01F0E056A7E2180B4AE
:1001B0001B230D6C7F177EE63D21046C83107E604F
:1001C000391B026E85107E181B23076AAF227CD86C
:1001D000301A096C82177E660502106F87177EB889
:1001E00034030761781782842111036A861D80A277
:1001F000131F016F660F82A6361D0D69791480E604
:1002000032170D697F227E30051B056582237E062D
:100210001E19026C870F82AE21230D698311789419
:100220003E1204637E0F7E080514016B841682CE95
:1002300012140E6DBD2B7E660C080D70BD2380144C
:100240000E0009679C2780E4221F0D6E85287C60C4
:100250003D00026381267E800A1D0B70532184A815
:100260000F21096C4A20826001140C6E4B33829C72
:1002700021040A6C4C387E642815096C47367C6A68
:1002800009000B6BA1257C1C27100D66BD30821068
:100290000A210A65B72B7AB8090B01646219800A32
:1002A0003B1D056D711F7E46220F05686D247E661D
:1002B0001A1103734C2080300804046150247E6CB2
:1002C0000D04026848347E98262402694D48803621
:1002D0001C0A03716B1D80EE2117026589117C5A7F
:1002E0000022006C880E82E63A1C05638E227E9402
:1002F00036040E6A9D20809C3D160F68A011802454
:1003000021070568A00786DE30150A6FB01E7EE45F
:100310001D220767A70884BA0F040E69A7087E8606
:100320001F0F0A69930C804621160A709A0E80C22C
:100330001208016B890F7E8828080F69981880AC15
:1003400021090C6F8D2C8092170E0470942080244C
:100350001102036AA2067E5E18210E6AA10880E6D9
:100360000419096B9B0E7C56211109699B0F82862B
:10037000251B0C6AA9238052330E056BAD118048F2
:1003800004121069A813849C290B066FA22A84E426
:10039000021D0066A0117E121E0E016C9B07827A60
:1003A000371205709F087CE023190164A20A7C3C87
:1003B0001C0C00659A187C74250301639C1184E26F
:1003C0000319076DA819809A3F1D1068AA4B7E94E7
:1003D0003713026CAD157E4A1F010C6F980A7E0C14
:1003E0002A06076A9B0C82123A22006A9E0B7E360E
:1003F000240A05689D0780A20E0E0C679F077E6287
:100400000D200E6B9C1184C22B010C6EA61C7E2E3F
:10041000250A096895147A0E23050363970F7E76E3
:100420000221097297117E50240A046EA1227EBE19
:100430000D170A6AC1147E3017210269C1237EA4F8
:100440002E150B66C1218250151A0B6FBF307E42EC
:100450003503046FC01082903704016FBF117E2EE8
:10046000100A0E68B3177E9E3B15036BA51C7E8891
:10047000120E0366960E803A251E096DB51380EAAA
:1004800020050F62A3217E3E1B010872AE1E80086C
:1004900034120970C02B7E4A0110056DC1257A30D7
:1004A000061C0B69AC2F7E163F0F08699726803615
:1004B0001B1E0B6CA014847E060E1167A1117EA07A
:1004C000200F0A6AA32E7E742402076DA90F7E46B0
:1004D00006020D6CAB117C662209056C54277C8EDC
:1004E000401806645931801205040C6A4E257C3888
:1004F00033170A695D287C84382104686E3B807E4E
:10050000011B0C6E901B8288000F076FA21480B233
:100510003C0D0862A51382C43D220C6CA021800C06
:100520001C120C6AA31480D21C0F086A6D1F7ABAC1
:1005300004190F654C237E86020D08744B337E1818
:10054000131F0A665D2F7C3A2802026E5C267C7CB3
:100550000513036F94317EB02D23056BC3337C9656
:100560000108026BC2307C2028210E6CC133805AF6
:10057000340A0465C1348018161E0F68BD1C7A6EDB
:100580000303025FBE1982801A050864BE0F7ED481
:100590003A1A0F6EBE307E582F1E0969BE3C7C5C35
:1005A000021A0B6DBE2E7E6033170E67C3347A5865
:1005B0000C16076AC233809030050E68BF387E92F1
:1005C00000080D6AC02B7E903220076AC23D801A57
:1005D00037030165BE0F82682A130A65BF19824A74
:1005E0000E210D6CBD1E7EB201110768BE3C827AE1
:1005F0001A17106EBE1E7E60081B096FB549843A3B
:100600001F1B086DB81C7E9C071B0E65AE07801271
:100610002A030164AF0F7E4E3108066AC030846041
:100620001A1A016EBE21805611150466BB2682E29D
:100630001515086BB50B801E25160863BB427E7C22
:100640002E0D056ABC197CCE3A20046DBE23806451
:100650001A0E006ABA147A1630091060B80380883E
:100660003D1C0B6CB0077E2427180065B92380C29F
:1006700031160071C03080BC00100E66AE4D7C3E5D
:100680001A04006DB30780320305056CB50F7CA416
:1006900013180064AD0B7E4624210C6AA51C7C68EF
:1006A0001E1D0C68A61A7CE0000D0368B20180AE26
:1006B0001D0B0C67B41780922706046FB7117C726C
:1006C000061E056AB60080382B0B106DB7007C44FF
:1006D00035140268A70A80F21913026DA2177E3A38
:1006E00019230D6DAE03804823180D6CA71980EAFD
:1006F00030030069A7147ED22E16076BB21C7EEE63
:1007000004090A6EB1007E6E3B16056BB1007C4891
:100710000A020A6BB7007E5A1A1B0966B6008016D9
:1007200007050864B300829E0C010B6FB0007C18B3
:10073000020202669E4D82A03C1F0D6BB345826C87
:1007400013140D6CB72A7C501B240169BE2682DE6F
:1007500026090B6ABE397C3806020F617F1A7E506B
:10076000141D0C6B71177C222F0F0E6873197E8C71
:100770002103096C802382EC2B1D086F7D2282F4FB
:10078000111C0C6D9F32807E3D120F6DB13380566F
:1007900011150B6FB4387EC014020270C029828418
:1007A0001A1B0A6ABD1D808A3616016B92257EB817
:1007B0001D160B6A78178096341A106C721A7A0616
:1007C0003C0D04696C1E7C9A140709696D1F804CEE
:1007D0003614056E9A147E6C0D030E6CBB058236C2
:1007E000340E0372BA027C1C391D0F6BB71780B22E
:1007F0002801086AB61180E6180F0A69BB117C400F
:10080000040D0967BC197C6E21070669BC147EDCE7
:10081000360E0C6BBD2F806219020672BC0282304C
:100820002C1B006BBB057E0C1A0D076CBA02807284
:100830001B010A6BB6107CC61B06086BBB117CF64D
:1008400035120D67BC197EFA30180267BB077A2A89
:100850002D000169BC157CD40301086ABB0F807AA6
:100860000E080269BC0F80561808016EBE267A1861
:100870001B1C016A71147E6A2B030A6F781480783E
:100880003E0B026770177A1E1E1F04616829828260
:100890002E090F6E6C2B806A1B220F6F463680D894
:1008A0002C010F692D287C843B1A10663724807E2A
:1008B00032170A6A63157EC410240467543A7E888E
:1008C000061C06646C148498200C0165761480C2A2
:1008D000061D0A687717805A3C11087080417C3EDB
:1008E0002B030B6D6C2382C81C1000697E187EC61A
:1008F00036160B69A0087EC83F0E0E69AE077A0A4D
:100900002C0D0367931180921F14036C940C7C5080
:100910002D1606659817803826190E6BAD0F80606E
:100920002719086CA30782FA2A11086DAF0B7E9C69
:100930003A02086A9E147C5E3D011066A7157E1679
:10094000101801649C0780DA16120C669C0780E878
:100950003F0D0C66931A7E6C3D0D036C902A8480CB
:100960001D100A6B960F7EDC3B21016AA40782B83A
:100970002E130065A61E7C103C210E6CA32080B2B5
:100980001607066CB00A7E68390D0068B752806E93
:1009900028080B6EB94782603220046EB35C80C2B7
:1009A00023211070A9358064211E006BAA437ED0DC
:1009B000001D006379137ED22E180D6A711382E434
:1009C00017110569751D82E81D1B08657F1E7E2EA7
:1009D00021220A637A1580842311046AAA4180DEE9
:1009E000390B086DBD4B7CC233070B66B8558024AC
:1009F0001A0E0E66A64C7CB0021C0869AB61803EE4
:100A00003E050D728A1C7A4A2D0B0F6672137E7298
:100A10001F04056773147EE433070C667B15803270
:100A20002B07106E78237E8E340A0B5E84197C5E51
:100A30003418036786188082290F0B6686177C346A
:100A4000071A086890237C7C1221016C9E14807820
:100A5000041B046A98117EBC271503649D107CBE9C
:100A600017210C6AAA177E142A230C689819805E35
:100A700024220E6B901480BE2801096E88157C72AA
:100A80002407086586177E90210B0764851780521E
:100A90002319106F97157EEE330B0D6C902582A8ED
:100AA0002C0A0A7394238016140B076A990F7EBED2
:100AB0001519046B9C1180C8270905688B137EBE2D
:100AC000361A0D669618801C36160A68BC14808289
:100AD0001D01086CBD1482800811056AA71C80D412
:100AE0000402096A88297E161D1B0D647F257EAAD3
:100AF0003E05106649297E4600160769432782ECA9
:100B00001E1F036C45217E0A3F0D0A6943177E8430
:100B100036020B6C43177E403F10046E9E1484C255
:100B2000221B0D73BC11829E24130767B11E7A34F9
:100B30002304066B80257E821F0B056389277C1AA0
:100B4000230C1165522982EC3322086E42257C88E1
:100B50001D110866482984EE0B12026C3F1780367F
:100B60001A180F6B491880342A0B096F571682F038
:100B700021150C6678187CBE10130F6A7718801E3A
:100B8000180E0C6076157E82250F08687B19804050
:100B90001B230D697B177C98331400687D1780A890
:100BA0000C0A086B82187AD42308006A84257C1406
:100BB0001F200E6C8A187E5A18240A6787198076BF
:100BC000270F066A74177E5001011065751782940D
:100BD0003313066C7A2080A4190C076B78178042B7
:100BE000210C0E6678187E3A070008668117827617
:100BF0003E1A056D801880B2271F0568851882E4AB
:100C00000D060A6E891780262220006D6C1880D48C
:100C10000F10106E7310804C301B0F6E6E1084CC52
:100C200004020E7257267E9837230E6A4A29846280
:100C3000240E096B47277EE62808106C3C1C7C4C70
:100C4000351C076A3C1C808A1D0C0F6956177C04F2
:100C500002120865671B7EC40917046963187E6861
:100C6000130B0C71731280DC1712066C73107E600C
:100C70003C0C066A78137C301B010F6280187CC61E
:100C800031010E697F187E26381F0565841786F4AA
:100C90000714076989187A84251C0D6688177E6EEB
:100CA0001C02066C8A187A303010056A8C177C5C3E
:100CB0003318006A902E7E4E342308699B108050B2
:100CC0000D0D0169951482BE1E20016C7D1780CC2C
:100CD00032120E728017803C1E10076E851880A09D
:100CE000232101698617826C3718086D891884B62C
:100CF0003A1A046C8C177C163E1D0169891882DA39
:100D00002D220265951384D6311B036D9A0F808ABC
:100D1000250D0168A9497C8833090A6AC0347E48D8
:100D20003E150C6CBF4A7C482E01016BBD597E28D4
:100D30002E100666BE4980142007006C82217C6E4E
:100D400030100D6D7B157C903702026B731C7E7C1E
:100D5000181F03655F35803A1418037048208034EB
:100D60002E150067A1297E543007016BC03380DE49
:100D70001C130272B546807810140466BC637C2292
:100D800028100F5FBD6980AC371D086D93237EB2BC
:100D90002F1D00607B1980462A09056D76187E3666
:100DA000151707704C2082F6321F076F692E7A687C
:100DB0003A1D0A718150823E13000770B96B7CAEF8
:100DC0002D180862B96B7C76320B106EAE4A7E9C91
:100DD000180C0868B86E7E9A37180E5DB9677E5297
:100DE0001B1D0B69BA657E0818150B66BB4F7E1478
:100DF0002D120E6CBA667E4A32090F6BBA5D80A264
:100E00001F1F0468BA657EA434090F68BA457E2A9C
:100E10001A0C0A69B96F7ED239010469B8657C8001
:100E2000160A0A69B65782262706006AAE547EAEB5
:100E300035040565BA657C082605096DBA6080A48D
:100E40003E1A0169B95482A6091E0A65BA53846222
:100E5000271D0F6EA849783823080962A9417E76BC
:100E600025030C6D803C82123908006A693A7C685F
:100E70001B190765503080A4100E046948347C109B
:100E8000010F056352307CD0281D046C4F2C82C6A4
:100E90002F11066C58217A800C160E69581A7AD8D0
:100EA0002E210B63973A7EF428110869A25E7CBA62
:100EB0000A080762963E7EBA0E040B6B4A3182D056
:100EC0003D1F10694A38809829171070552A80569E
:100ED000341F0A694D317C9E0E200F664F2C7EC850
:100EE0002F1D016556197AB8140C0D665F26828E87
:100EF000111B0D6F8B4680B61E080164BA69806EA7
:100F00001D1F036DB96C7E0616140D66BC657E1040
:100F10003703076EBF677EDA3A13036EC05880E26C
:100F20001F070B6DC33C80BA2F04056DC3397EAE1D
:100F3000320B0366C23D824806200E68C0347C52E4
:100F40002E0B0B67BE547EDC2B0F046DB96C7E56E6
:100F50000E020E67BA6B849227150972BD6980AACA
:100F6000291C0672BC6B825A1B0D0D6BBE5D82285C
:100F7000100E036FC33882F21C221068C3408070C9
:100F80001B090E68C0387E3C2419096AC23C7E46A3
:100F90002A121063C375805600040D6EC4627E6A07
:100FA0003A1E0D6FBD3B7E420E0E096CBE1C7EF6D6
:100FB0002B050369BF337EE41C0C0B6BA70F7C84ED
:100FC0002C14056698158452261C066C7A227EFA2B
:100FD0002D16096F373188C83D060162333E7A60AD
:100FE000090E0A66B05184C01A030666C57C7C0CE3
:100FF0002F18096BC34F84DE1D170F72BF2F86CCCD
:101000002D1F0570BC1980502111026DA9187E6832
:1010100031020168A6107E760D17076A9019805874
:101020002A0602674C387E5E281D0A683A34803AE8
:101030001710086745257E98362407665A197C26BE
:10104000360E076B901F80DE141904677218806ECD
:101050003406046E771880AE1B1107697D177E98E1
:101060002F1C0F6E86187ED23D160369831780B839
:101070002622036E7D187C802B140A696C2180D88F
:1010800025170B6465257C6C3B1A1068561C8096EE
:101090003205016A571982980018076F67347A720F
:1010A00017230168732E80B80C1C0E667A1880A472
:1010B0001C1B106B8317807021240F6F861A7EEC27
:1010C00032220F6875277E341F0D07677B117C3233
:1010D0002A20096A773480DE1F0910724C3284A6F8
:1010E0002523056E52407A303F0D10685D3C82D05A
:1010F0000710076A5739827A32000A6E493D846EBA
:101100002C20026A493A84EE3821026743377E4236
:101110001F030A675E2886BA190C0C6C46257C3AB8
:1011200029190867442C844A270E02684039802018
:101130003214016B5A457CBC01090E6352397AA006
:10114000160A10685242825E40180D6D503880A415
:10115000321B036B49447C5C0F160E6A3C2B7CDA15
:101160002F06056C3D2984BC151B0E677F177E9EDC
:10117000391202648A0F7E581E180E698B0F80EE9A
:10118000300702659A0F7E4238200A69871A82EE7C
:101190001B02046CA00B7C5E16140966AF087E0C63
:1011A000350C0D6DAC0780C42E090E6FA91A80EAAC
:1011B000390B056EBF2A80C61C1F0B69B0217C5AF3
:1011C0002D2401678B0F84D42A19016B8E0F80E4C4
:1011D0002B1C046B94117C763420106F9B0F8006BF
:1011E000260008689E0F7E743717036DAC077C38A5
:1011F000311E076AAD077C98390B0E69B82084C888
:101200001E170471BE2B82FA20240B667417808887
:10121000381F0267951182301A0A096B930F7C5AA6
:101220000B22056D8D2082C22F08076D982A82E857
:101230002C1F076C9B0F7E8403150D75990A7EF891
:10124000060701649D0C805C2D110F6C98227EE2D4
:1012500016000969A813827A230010659E117CFA92
:101260002705086A930F80F22E1E0667920F846C82
:101270001624016C9A107E7218160765990E806C00
:101280002D05096D903782A21000026A9D0B7E4EDB
:1012900015210968990B7C1828170F6AA5137A463F
:1012A00037111069982B80FA2C1D04666B197CD2BB
:1012B0002215036767187E5C091B106B5A257E2672
:1012C0001E13066A602482CC171C07695E267E16F0
:1012D0002A0504675727807E2C17026D5B2E80AE8F
:1012E000171B01625A257A8C39160F6D5827800614
:1012F000350C04655E23803025170E6E462B80BAB0
:1013000025070B686519803E201F056C760E805AF4
:101310001D2307669007805C1D100E718C0782E606
:101320000F190B678A187E18250B066A8E077EBC7C
:101330001024046B97077EB23E1801749C078072DC
:101340003206096D9F07806407220E6CA00B7C4259
:101350001B010F679E0C80B43011006C9117781E32
:101360003F2104678C077E06160F0F678B07809A54
:101370002A17086D8E1D7E78011D006B8E29801046
:101380001424046792077E583D23096E9E0782B895
:10139000130C05649F087E2E19050E6C991082F4BB
:1013A00024050E6CA00A80600F1C016B20142728F6
:1013B0002828212828232828282828280000010157
:1013C0000202030304040505060607070114FC13C3
:1013D000F613F313EF13E913E313DC13666C6F7763
:1013E0006572005661756C740053746172740053B9
:1013F0006561004F6E00486F7573650046697265E0
:1014000000446F776E0011241FBECFE5D8E0DEBF29
:10141000CDBF84B78093010414BE11E0A0E6B0E014
:10142000E4E2FEE202C005900D92A63AB107D9F7B8
:1014300024E0A6EAB1E001C01D92A130B207E1F7B5
:101440000E94470B0C9410170C9400009B01AC01F8
:1014500060E07CE88AE090E00E9474162150310937
:1014600030BD29B988E98AB986E880BD08955D9BB9
:10147000FECF8CB90895CF93DF93EC018881882348
:1014800031F021960E94370A89918111FBCFDF91BB
:10149000CF910895CF93DF93CDB7DEB72C970FB6DA
:1014A000F894DEBF0FBECDBF2AE0AE014F5F5F4FA5
:1014B0000E94CF16CE0101960E943B0A2C960FB6D1
:1014C000F894DEBF0FBECDBFDF91CF9108955D9B35
:1014D000FECF8CB908951F920F920FB60F92112470
:1014E0008F938091AF018111369A8F910F900FBE2B
:1014F0000F901F9018951F920F920FB60F92112404
:101500008F939F938091AF0191E089278093AF01E2
:101510008091AF01811108C037989F918F910F90F2
:101520000FBE0F901F9018951092AA011092A9015A
:10153000379AF3CF1F920F920FB60F9211242F9369
:101540003F934F935F936F937F938F939F93AF934B
:10155000BF93EF93FF938091AF018823D1F08091E7
:10156000A9019091AA0180349F4168F585B18093CB
:10157000AC0181E08093AB018091A6018823D1F07A
:101580008091A9019091AA0101969093AA0180935C
:10159000A901FF91EF91BF91AF919F918F917F91A1
:1015A0006F915F914F913F912F910F900FBE0F90D0
:1015B0001F9018956091AC018091A9019091AA01AA
:1015C0000E94EE15DDCF1092AF01E3CF1F920F9274
:1015D0000FB60F9211248F939F93EF93FF938CB1CB
:1015E0008A3089F08D3079F09091A8019F30B0F465
:1015F000E091A80191E09E0F9093A801F0E0EF54D4
:10160000FE4F80830BC0E091A801F0E0EF54FE4F45
:1016100010821092A80181E08093A701FF91EF91C1
:101620009F918F910F900FBE0F901F90189560E6BD
:1016300070E081EB91E00E94C616892B69F065E8A5
:1016400070E081EB91E00E94C616892B99F08EE93B
:1016500090E00E943B0A089581E08093A60187E60E
:1016600090E00E943B0A0E94AA1589E790E00E9440
:101670009B1508951092A60189E890E00E943B0A0C
:101680000E94AA1585E990E00E949B150895CF93CA
:10169000DF93CDB7DEB760970FB6F894DEBF0FBE0D
:1016A000CDBF60E074E883E090E00E94260A0E94CB
:1016B000B3150E94AA158CEA90E00E949B150E9427
:1016C00033160E941E100E9424100E94E515789483
:1016D0008AEB90E00E943B0A6091010470E090E088
:1016E00080E00E944A0A8EE791E00E943B0ACC24E7
:1016F000C394A12CB12C25C00E94170B1092A701F6
:1017000024C00E94AA1587EC90E00E949B1584EDEE
:1017100090E00E943B0AC092AE0127C00E94AA1529
:101720008BED90E00E949B1583EE90E00E943B0AB7
:101730001092AE01C092AD0118C08091A60188231D
:1017400039F18091A7018111D7CF8091AF01882312
:1017500021F08091AE018823A1F28091AF01811127
:1017600004C08091AE018111D9CF8091AF0188234F
:1017700021F38091A601882359F08091AB01882341
:1017800001F31092AB018091AC010E94670AD5CFA2
:101790008091AD018823A9F21092AD010E94AA1593
:1017A00089EE90E00E949B1587EF90E00E943B0A33
:1017B0008091A9019091AA01D12C883C910570F1EA
:1017C000EA2CFB2CD12C10E000E0C701800F911F08
:1017D0000E941016F801EF5FFC4F80830F5F1F4FD0
:1017E000083C110591F7870108531F4F6D2D80E0CC
:1017F0000E94440D8D2D0E94680ED3948091A90102
:101800009091AA0120E7E21A2EEFF20A8E159F05A9
:1018100028F088E2D81611F07801D5CF1092AF01E8
:10182000379883EE90E00E943B0A0E94AA1583E05D
:1018300091E00E949B158D2D0E943E10BE016F5FAE
:101840007F4F0E9432100E94AA1560E080E00E9443
:10185000CF1581E191E00E949B1560E08C2D0E94E4
:10186000CF15CE0101960E949B151092B00169CF51
:10187000CF92DF92EF92FF92482F58EC580FC12C75
:10188000D12C7601E42FF0E0EF5FFC4FA081A0584F
:10189000BB0B9D010E949616C60ED71EE81EF91EB0
:1018A0004F5F4513EFCF55274F2D3E2D2D2D211581
:1018B00080E4380741055105A0F4AFEFB0E00E9485
:1018C000B416DC01CB01072E7EE0B695A79597955F
:1018D00087957A95D1F7702DFF90EF90DF90CF909C
:1018E00008958FEFF9CFE82FF0E0EF5FFC4F4081D4
:1018F0004058550B91E0980F885370E060E0B0E0DD
:10190000A0E00AC06F5F7F4F422753275523A4F002
:101910009F5FA901981791F0E92FF0E0EF5FFC4F6E
:1019200020812058330BF9017D96FB9758F7FA0177
:101930007D96FB9738F7ECCF1196EACF6A307105A8
:1019400050F02FEF2A9FC0012B9F900D11240E9471
:101950004C16862F089580E008954F925F926F9203
:101960007F928F929F92AF92BF92CF92EF92FF920F
:101970000F931F93CF93DF9300D000D0CDB7DEB786
:10198000FC013196812C912C54018394412C512CD3
:101990003201E12CF12C8701C1908C2D90E0B0E058
:1019A000A0E089839A83AB83BC839C01AD01C50110
:1019B000B4010E943C16E60EF71E081F191F420EC6
:1019C000531E641E751E9FEF891A990AA90AB90A47
:1019D000A0E88A169104A104B104F1F680E0411454
:1019E00051046104710441F0C801B701A3019201DF
:1019F0000E947416822F880F0F900F900F900F90F7
:101A0000DF91CF911F910F91FF90EF90CF90BF90FA
:101A1000AF909F908F907F906F905F904F900895C0
:101A2000FC01319682E070E060E0A0E003C08F5FCF
:101A30008E3789F091912181290F3327331F4081FF
:101A400050E0440F551F240F351F6217730778F7B6
:101A5000B901A82FECCF8FEFA89FA00111249A0104
:101A6000A5E0B2E00E949E16481B590B569547957B
:101A7000840F951F0024880F991F001C880F991F41
:101A8000001C892F902D0895AF92BF92CF92DF92C4
:101A9000EF92FF920F931F93CF93DF93CDB7DEB7F3
:101AA000C058D2400FB6F894DEBF0FBECDBFB82EDF
:101AB000683290F0C058DD4F0FB6F894DEBF0FBE0D
:101AC000CDBFDF91CF911F910F91FF90EF90DF90ED
:101AD000CF90BF90AF900895C62ED12CCC0CDD1CBA
:101AE000CC0CDD1CCC0CDD1CC6018F539E4F6C0151
:101AF0008B2D0E94380CD6018C938B2D0E94730C79
:101B0000F60181838E010F5F1F4F7E01F1E0EF0E22
:101B1000FF1EAE0147535E4FD7019801EB2DF0E059
:101B2000EF5FFC4F80818058F90181939F011D92E6
:101B3000B394A417B50791F730E020E048E050E0F7
:101B4000BE016F5F7E4FCE0101960E94AF0E9801DD
:101B500020583F4FFE01EF5FFD4F0DC091958195DD
:101B6000910911C051954195510915C0890F819373
:101B700002171307D1F0D8018D918D01082E000CAA
:101B8000990B99235CF3D7014D917D01042E000C34
:101B9000550B55233CF3642F982F481708F4942FC6
:101BA0009695861718F7862FE1CFCE018F5F9D4F50
:101BB0000E94AD0CF6018283CE018F5F9D4F0E9483
:101BC000100DD60113968C93CE5FDD4F8881C250E5
:101BD000D240CD5FDD4F9881C350D240890F992705
:101BE000991FCC5FDD4F6881C450D240860F911D94
:101BF000CB5FDD4F6881C550D240680F792F711DD2
:101C0000E1E0F2E0EC0FFD1F359621E032E02C0F11
:101C10003D1F245F3F4FB12CA12C8191A80EB11C18
:101C2000E217F307D1F7FE01E35FFD4F21E032E059
:101C30002C0F3D1F255E3F4FF12CE12C8191E80ECA
:101C4000F11CE217F307D1F7FE01E45EFD4F41E01E
:101C500052E04C0F5D1F40585F4F00E010E09801CC
:101C60008191080F111D211D311DE417F507C1F7E2
:101C70004FEF469FC001479F900D11246CEF73E01A
:101C80000E944C16F60164834A9DC0014B9D900D45
:101C9000112469EF76E00E944C1665834E9DC001C9
:101CA0004F9D900D112461EF7EE00E944C166683DB
:101CB000AFEFB0E0A90198010E94B4162BE934E619
:101CC00040E050E00E947416D60117962C93F2CE95
:101CD0000F931F93CF93082F8BE191E00E943B0A53
:101CE000602F70E090E080E00E944A0A8DE191E070
:101CF0000E943B0A10E0000F111F000F111F000F80
:101D0000111F0F531E4FC0E003C0CF5FC83071F0EA
:101D1000F80161918F0170E090E080E00E944A0A32
:101D2000C73098F78CE20E94370AEFCF80E291E04B
:101D30000E943B0ACF911F910F910895882334F0A0
:101D4000E82FF0E0EC5AFF4F84910895282F205897
:101D5000330BF901EC5AFF4F8491819508952F922E
:101D60003F924F925F926F927F928F929F92AF922B
:101D7000BF92CF92DF92EF92FF920F931F93CF9378
:101D8000DF93CDB7DEB768970FB6F894DEBF0FBE0E
:101D9000CDBFE1E0F0E01F0102C0220C331C4A95E8
:101DA000E2F7A101415051095A83498314161506DF
:101DB0000CF043C06C015FEFC51AD50A7B01AFEF91
:101DC000EA1AFA0A01E010E0F0E0E0E089809A8087
:101DD0000BC00F5F1F4FBFEFCB1ADB0A4FEFE41AA8
:101DE000F40A801691064CF1A10155954795DA0148
:101DF000AE0FBF1F8A169B06C4F3DA011197EA23C0
:101E0000FB23E40FF51F0E171F071CF7D6014C919B
:101E10005C01AE0EBF1ED5015C91D6015C93D5016D
:101E20004C93D7014C915B01AE0EBF1ED5015C9166
:101E3000D7015C93D5014C93CCCF52E025163104E9
:101E40000CF4E1C03C872B87788B6F879E878D874A
:101E500081E090E09F838E8339862886ADC08D898E
:101E60000E949E0E8195A884B98429813A812A1501
:101E70003B050CF07AC009891A89020F131FAB8841
:101E8000BC88A20EB31EBE8AAD8AAD85BE85A20FE8
:101E9000B31FF901AF84B888EA0DFB1D5901082C66
:101EA000000C9908282F880F330B28843984B88FA9
:101EB000AF8BD8016C91062E000C770BAD89BE89D3
:101EC000EC900E2C000CFF08D080AF89B88DCC9020
:101ED000869EA001879E500D969E500D11242E9D2A
:101EE00020012F9D500C3E9D500C11244419550982
:101EF000440F452F441F550B8C2D841BD8018C9308
:101F00008E9CC0018F9C900D9E9C900D1124629F11
:101F10007001639FF00C729FF00C11248E0D9F1DB9
:101F2000880F892F881F990B9D2D981BAD89BE891D
:101F30009C934C0DAF89B88D4C938D0D80834B8154
:101F40005C81A40EB51E060D171D8D899E89860D18
:101F5000971D9E8B8D8BA60DB71DB88FAF8BE60D91
:101F6000F71DA214B3040CF4A4CFA981BA81119671
:101F7000BA83A983AD80BA84AB0CAD82AE80BF803A
:101F8000AA15BB0581F09D8190549D8B8D810E9487
:101F90009E0E882EAB84BC84AB2809F460CF8D895B
:101FA0000E949E0E60CFAB80BC80BF82AE8228852F
:101FB0003985A216B3063CF5AE80BF80AA0CBB1CC7
:101FC000BC82AB8280E890E06E817F810E946016C7
:101FD0006A87AE80BF801A141B042CF720E42D837F
:101FE000512C412C6B807C804D855E854A0D5B1D9C
:101FF0005A8B498B8F859889A80EB91EBC8AAB8AEB
:102000005A824982C0CF90E080E068960FB6F8947B
:10201000DEBF0FBECDBFDF91CF911F910F91FF901B
:10202000EF90DF90CF90BF90AF909F908F907F9078
:102030006F905F904F903F902F90089580E687B902
:1020400086E886B9339A08958EB588608EBD8EB5C0
:1020500082608EBD8BEA90E09BBD8ABD89B78061AE
:1020600089BF0895E82FCB01F0E0EE0FFF1FE45386
:10207000FC4E659174910E94BF1608952F923F9275
:102080004F925F926F927F928F929F92AF92BF9288
:10209000CF92DF92EF92FF920F931F93CF93DF9334
:1020A000CDB7DEB7C25AD1400FB6F894DEBF0FBE2F
:1020B000CDBFC357DE4F8883CD58D14084E291E035
:1020C0000E943B0A84E391E00E943B0AC357DE4F23
:1020D0002881CD58D140622F70E090E080E00E94CE
:1020E0004A0A8EE791E00E943B0ADE0191969D012B
:1020F000FE0131964FEF5FEFBA018FEF419351939D
:10210000619371938D93E217F307C1F7C357DE4FC5
:102110003881CD58D140332309F4DFC08091C1010B
:10212000843608F03AC489EC91E010E01F5FC35791
:10213000DE4F4881CD58D140411709F42EC408968E
:10214000FC0138972081243688F3C357DE4F08817D
:10215000CD58D1400150802FC2F058E08502F001E7
:102160001124EF53FE4F9081943670F4EFEFE80F97
:1021700098E0E902F0011124EF53FE4F81502AF05C
:10218000389790859436D0F3082FFF24F394F00EFF
:10219000F11A112329F1FF2019F1E1ECF1E08FEFA1
:1021A0008F0D90E0880F991F880F991F880F991F36
:1021B00087539E4F612F70E0660F771F660F771F62
:1021C000660F771FDF01A60FB71FAF01485F5F4F94
:1021D0002D912193E417F507D9F7E817F90791F73F
:1021E000F092B00181E491E00E943B0A612F70E01F
:1021F00090E080E00E944A0A8DE491E00E943B0A50
:10220000602F70E090E080E00E944A0A84E591E04F
:102210000E943B0A6F2D70E090E080E00E944A0A25
:102220008EE791E00E943B0AACEAB3E1C257DE4F71
:10223000B983A883CE58D140E4EDF0E0C057DE4F1B
:10224000F983E883C059D140CE56DE4F18821982F7
:102250001A821B82C259D140C256DE4F1882CE5913
:10226000D1402FEF3FEFA901C756DE4F28833983B6
:102270004A835B83C959D140C357DE4F5881CD583B
:10228000D140452F50E0C956DE4F59834883C75986
:10229000D14081E490E08C0F9D1F0496C056DE4F24
:1022A00099838883C05AD1409FEFCC57DE4F9883E3
:1022B000C458D140AFEFCB57DE4FA883C558D140AB
:1022C000BFEFCA57DE4FB883C658D140EFE3CE55B3
:1022D000DE4FE883C25AD14050C2C357DE4FF88068
:1022E000CD58D1401F2D0FEF7BCF88249924881A19
:1022F000990A81C288279927861B970B34C06624C8
:102300007724681A790A0CC0480F591F2F5F31963D
:10231000283061F08D919491891B990B3C017AF3DF
:10232000C301243088F3880F991FEECFE1102DC030
:10233000660F771F660F771FE1EEF0E0EC0FFD1FD1
:10234000E60FF71F70E060E0408351836283738380
:10235000E3946E2D0E2C000C770B60177107B4F50B
:10236000CB0177233CF2C816D90694F3A1ECB1E077
:10237000FB01EE0FFF1FEE0FFF1FEE0FFF1FEA0D19
:10238000FB1D50E040E020E0C5CFDB01AA0FBB1FE2
:10239000AA0FBB1F81EE90E08C0F9D1FA80FB91FE5
:1023A000FB013197EE0FFF1FEE0FFF1FE80FF91F24
:1023B0004080518062807380440E551E611C711CE8
:1023C0004D925D926D927C921397C2CFC357DE4FB0
:1023D0009881CD58D140923008F42AC133243394E7
:1023E00038180F2EF9ECAF2EF1E0BF2EF02D981912
:1023F000C557DE4F9883CB58D140CC24CA94C20C29
:10240000D12CCC0CDD1CCC0CDD1CC056DE4FA881C1
:10241000B981C05AD140CA0EDB1E880C8394C457C0
:10242000DE4F8882CC58D140CA56DE4F2882C6592A
:10243000D140CE55DE4F9880C25AD1408DC0812CFC
:102440009FC000271127081B190B0CC0480F591FEC
:102450002F5F3196283061F08D919491891B990BF3
:102460008C017AF3C801243088F3880F991FEECFCE
:1024700018140CF0B5C2F701349740805180628087
:102480007380FFEF4F165F066F06FFE37F0608F0CD
:1024900096C2FB0100811181228133818481958163
:1024A000A681B781081719072A073B0710F4D9013D
:1024B000C801481659066A067B0610F4D301C2010A
:1024C000840F951FA11DB11DF70181939193A193D5
:1024D000B1937F018394CF57DE4F28813981C15852
:1024E000D140285F3F4FCF57DE4F39832883C158F3
:1024F000D1406C5F7F4FCD57DE4F3881C358D140FC
:10250000381559F0CF57DE4FE881F981C158D140D5
:10251000D50150E040E020E09FCF222089F0DE018D
:10252000AF51BF4FFE01EF5BFF4F41915191619160
:1025300071914D935D936D937D93EC15FD05A9F716
:10254000339448E0A40EB11CC557DE4F5881CB58D8
:10255000D140351609F46CC0FE01EF5BFF4F22201D
:1025600059F02FEF3FEF4FEF5FE32193319341930A
:102570005193EC15FD05A9F7832C33200CF45FCFA4
:10258000C457DE4F3881CC58D140330DCD57DE4F84
:102590003883C358D140832F330F990BC957DE4F6F
:1025A00048815981C758D1404817590754F4CA5631
:1025B000DE4F5881C659D140CD57DE4F5883C3589E
:1025C000D140CD57DE4F8881C358D14088160CF0DA
:1025D000A4CF082D082C000C110BB801660F771F33
:1025E000660F771F0F2EF1E4EF2EF12CF02DEC0E7D
:1025F000FD1EE60EF71E000F111F000F111F000F2A
:10260000111FC757DE4FA881B981C958D140A00F0B
:10261000B11FCF57DE4FB983A883C158D140645052
:102620007109E1EEF0E0EC0FFD1F6E0F7F1F6ACF26
:10263000C957DE4FE881F981C758D1403197EE0F75
:10264000FF1FEE0FFF1F81EE90E08C0F9D1FE80F24
:10265000F91FC956DE4F28813981C759D140C95762
:10266000DE4FA881B981C758D1402A0F3B1F032EE6
:10267000000C440B550B60817181828193810E9413
:10268000741669017A01C756DE4F288139814A8163
:102690005B81C959D140C216D306E406F50690F411
:1026A000C156DE4F3881CF59D140C256DE4F3883F4
:1026B000CE59D140C756DE4FC882D982EA82FB820A
:1026C000C959D14086E991E00E943B0ACE56DE4FBF
:1026D000688179818A819B81C259D1400E944A0ACE
:1026E0008EE591E00E943B0AC356DE4F4881CD59EA
:1026F000D140642F70E090E080E00E944A0A84E6B6
:1027000091E00E943B0AC701B6010E944A0A8EE787
:1027100091E00E943B0AC257DE4F88819981CE58D2
:10272000D1400196C257DE4F99838883CE58D1405D
:10273000C057DE4FA881B981C059D1401296C05709
:10274000DE4FB983A883C059D140CE56DE4F2881D1
:1027500039814A815B81C259D1402F5F3F4F4F4F32
:102760005F4FCE56DE4F288339834A835B83C2593D
:10277000D140A45FB04009F482C0CE56DE4FF8814C
:10278000C259D140C156DE4FF883CF59D140C2570C
:10279000DE4FE881F981CE58D140F491C356DE4F27
:1027A000F883CD59D140C257DE4FE881F981CE5828
:1027B000D1402490C057DE4FE881F981C059D14003
:1027C00085919491C757DE4F99838883C958D1402A
:1027D000222D30E0C957DE4F39832883C758D140B6
:1027E000C956DE4F88819981C759D140821B930B0E
:1027F0004C010AF47ACD38E0831691041CF46894F5
:10280000882483F8082D222009F4E0CDFE01EF5141
:10281000FF4FDE01AF5BBF4F8FEF820D90E0880F5F
:10282000991F880F991F9F012C5F3F4F820F931FA5
:102830002FEF3FEF4FEF5FE321933193419351939C
:102840002D933D934D935D93E817F90789F7C95789
:10285000DE4F48815981C758D140141615060CF037
:10286000B5CDE12C60E070E0C02E000FDD08C75749
:10287000DE4FA880B980C958D1408A0171CD88E661
:1028800091E00E943B0AFE01B99688E0DF011D92AB
:102890008A95E9F7C12CD12C7601C39466246A94F9
:1028A00077247A9488248A9499249A94AA24AA94BE
:1028B000BB24B39467C09F5F3496983081F02D910C
:1028C0002111F9CF0081118122813381041715076D
:1028D0002607370780F7892FB901A801ECCF8F3F72
:1028E00009F49AC0082F10E0E9E2F0E0EC0FFD1FB8
:1028F000E00FF11FB082BE016F5B7F4F0E9432106C
:10290000C701B6010E944A0A84EC90E00E943B0A8B
:10291000CE018F5B9F4F0E943B0A81E891E00E94AD
:102920003B0AE1E2F0E0EC0FFD1FE00FF11F6081D8
:1029300070E090E080E00E944A0A88E891E00E94FE
:102940003B0AF801EE0FFF1FEE0FFF1F21E030E002
:102950002C0F3D1FE20FF31F6081718182819381F3
:102960000E944A0A8EE791E00E943B0A3FEFC31A99
:10297000D30AE30AF30A49E0C416D104E104F104DE
:1029800009F44AC0DE019996FE01319690E0862D49
:10299000472D582D692D7A2D92CFC357DE4F0881D0
:1029A000CD58D1400150802FC357DE4FF880CD580D
:1029B000D14010E000230CF413CC10E0CECBCC5768
:1029C000DE4F4880C458D140CB57DE4F5880C558A1
:1029D000D140CA57DE4F6880C658D140792C59CDB6
:1029E000FB0184819581A681B7810097A105F0E460
:1029F000BF0708F465CDCC57DE4F8881C458D1405D
:102A0000CB57DE4F9881C558D140CA57DE4FA881B9
:102A1000C658D140B92D54CDC256DE4F5881CE593B
:102A2000D140E52FF0E0E454FC4E1491BE016F5C00
:102A30007F4F812F0E94321080E991E00E943B0A73
:102A4000C256DE4FA881CE59D1406A2F70E090E087
:102A500080E00E944A0A88E991E00E943B0ACE0188
:102A6000C1960E943B0A8DE991E00E943B0AC7563D
:102A7000DE4F688179818A819B81C959D1400E944A
:102A80004A0A8EE791E00E943B0A812FCE55DE4F25
:102A90000FB6F894DEBF0FBECDBFDF91CF911F916F
:102AA0000F91FF90EF90DF90CF90BF90AF909F90ED
:102AB0008F907F906F905F904F903F902F900895F0
:102AC00095B39F7095BB80FDAC9A81FDAD9A82FD58
:102AD000AE9A83FDAF9A979A84E08A95F1F797981A
:102AE00084E191E00197F1F700000895CF93C82F9A
:102AF000AA98AB9882958F700E9460158C2F8F706A
:102B00000E94601589E995E10197F1F700C0CF9126
:102B10000895CF93C82FAA9AAB9882958F700E9480
:102B200060158C2F8F700E94601588EB8A95F1F7E5
:102B30000000CF910895CF93DF93EC018881882323
:102B400031F021960E94891589918111FBCFDF9187
:102B5000CF91089581E00E94761589E995E101976A
:102B6000F1F700C008958F9A84B38C6084BB84B35E
:102B7000806F84BB8FEF97ED0197F1F700C00000E5
:102B800082E00E94761588E20E9476158CE00E9411
:102B9000761586E00E9476150E94AA15089588236E
:102BA00029F080EC860F0E947615089580E8860F44
:102BB000FACF2BB32170982F990F922B9BBB80FDDE
:102BC00002C0C0980895C09A089587B38E6187BBEC
:102BD00088B3886188BB1ABAB8980895CF93DF93F9
:102BE000D92FC62F9EEF9ABBB89A0E94D915C19AC9
:102BF00084E08A95F1F7C1988D2F0E94D915C29A69
:102C000084E08A95F1F7C2988C2F0E94D915C49858
:102C100087E08A95F1F700C0C49ADF91CF910895BB
:102C2000CF93C92F9EEF9ABBB89A0E94D915C19A2B
:102C300084E08A95F1F7C1988C2F0E94D915C29A29
:102C400084E08A95F1F7C2981ABAB898C39887E0D9
:102C50008A95F1F700C086B399B3C39A9E7F8170BD
:102C6000892BCF9108958A98929A85B7826085BF03
:102C70008BB780648BBF0895DB018F939F930E9475
:102C8000B416BF91AF91A29F800D911DA39F900D8F
:102C9000B29F900D11240895AA1BBB1B51E107C0E0
:102CA000AA1FBB1FA617B70710F0A61BB70B881FDC
:102CB000991F5A95A9F780959095BC01CD0108956B
:102CC00097FB072E16F4009407D077FD09D00E94D9
:102CD0004C1607FC05D03EF4909581959F4F0895C2
:102CE000709561957F4F0895A1E21A2EAA1BBB1B18
:102CF000FD010DC0AA1FBB1FEE1FFF1FA217B307C8
:102D0000E407F50720F0A21BB30BE40BF50B661FDD
:102D1000771F881F991F1A9469F7609570958095A1
:102D200090959B01AC01BD01CF0108950E949E16B4
:102D3000332312F48A1B9B0B0C94AF16A29FB00195
:102D4000B39FC001A39F700D811D1124911DB29FDF
:102D5000700D811D1124911D08950E949E16B7FFCC
:102D60000895821B930B08950E949E16A59F900DB7
:102D7000B49F900DA49F800D911D11240895FB0117
:102D8000DC0105900D920020E1F70895FB01DC01C4
:102D90008D91019080190110D9F3990B0895BB27EB
:102DA0002A3051F4992342F4BDE2909580957095B4
:102DB00061957F4F8F4F9F4F0C94DF16BB27FA0111
:102DC000A62F6217710581059105330B30FB66F064
:102DD000AA27660F771F881F991FAA1FA21710F036
:102DE000A21B63953850A9F7A05DAA3308F0A95D2E
:102DF000A19336F7B111B1931082CA010C94001758
:102E0000DC01FC01672F71917723E1F7329704C051
:102E10007C916D9370836291AE17BF07C8F30895DC
:042E2000F894FFCF54
:102E240073747265616D004D4F44453A205354529A
:102E340045414D494E470D0A0053747265616D203A
:102E44006D6F646500647370004D4F44453A2044CF
:102E540053500D0A00445350206D6F646500554E65
:102E64004B4E4F574E20434D440D0A005379737413
:102E7400656D2052656164792100524553455420A3
:102E8400464C41473A20005265636F7264696E672D
:102E94002E2E2E0053544152540A0053746F7070F6
:102EA40065640053544F500A00457874726163742A
:102EB400696E672E2E2E0045585452414354494E94
:102EC400470A0050726F63657373696E672E2E2E06
:102ED4000044657465637465643A0046003A5B00B7
:102EE4005D0D0A000D0A2D2D2D20445457202D2D43
:102EF4002D0D0A006C6976655F6672616D65733DC0
:102F0400005641443A2066697273743D00206C6136
:102F140073743D00207472696D6D65643D00206CAE
:102F2400656E3D0020643D000D0A2D2D2D20574F68
:102F340052442052414E4B494E47202D2D2D0D0A0F
:102F440000202074706C3D002020646973743D007F
:102F5400424553543A207400202D3E2000207363D0
:062F64006F72653D0000E4
:00000001FF
